{
	"SubastaSandra.sol": {
		"SubastaSandra": {
			"abi": [
				{
					"inputs": [],
					"stateMutability": "nonpayable",
					"type": "constructor"
				},
				{
					"anonymous": false,
					"inputs": [
						{
							"indexed": false,
							"internalType": "uint256",
							"name": "maxAddr",
							"type": "uint256"
						},
						{
							"indexed": false,
							"internalType": "uint256",
							"name": "maxPrice",
							"type": "uint256"
						}
					],
					"name": "EndSubasta",
					"type": "event"
				},
				{
					"anonymous": false,
					"inputs": [
						{
							"indexed": true,
							"internalType": "address",
							"name": "addrBidder",
							"type": "address"
						},
						{
							"indexed": false,
							"internalType": "uint256",
							"name": "price",
							"type": "uint256"
						}
					],
					"name": "NewBidCreated",
					"type": "event"
				},
				{
					"inputs": [
						{
							"internalType": "address",
							"name": "",
							"type": "address"
						}
					],
					"name": "balance",
					"outputs": [
						{
							"internalType": "address",
							"name": "bidderAddr",
							"type": "address"
						},
						{
							"internalType": "uint256",
							"name": "price",
							"type": "uint256"
						},
						{
							"internalType": "uint256",
							"name": "balance",
							"type": "uint256"
						}
					],
					"stateMutability": "view",
					"type": "function"
				},
				{
					"inputs": [],
					"name": "bid",
					"outputs": [],
					"stateMutability": "payable",
					"type": "function"
				},
				{
					"inputs": [],
					"name": "endRefund",
					"outputs": [],
					"stateMutability": "nonpayable",
					"type": "function"
				},
				{
					"inputs": [],
					"name": "getWinner",
					"outputs": [
						{
							"internalType": "address",
							"name": "",
							"type": "address"
						},
						{
							"internalType": "uint256",
							"name": "",
							"type": "uint256"
						}
					],
					"stateMutability": "view",
					"type": "function"
				},
				{
					"inputs": [],
					"name": "partialRefund",
					"outputs": [],
					"stateMutability": "nonpayable",
					"type": "function"
				},
				{
					"inputs": [],
					"name": "showBids",
					"outputs": [
						{
							"components": [
								{
									"internalType": "address",
									"name": "bidderAddr",
									"type": "address"
								},
								{
									"internalType": "uint256",
									"name": "price",
									"type": "uint256"
								}
							],
							"internalType": "struct SubastaSandra.Bidder[]",
							"name": "",
							"type": "tuple[]"
						}
					],
					"stateMutability": "view",
					"type": "function"
				},
				{
					"inputs": [],
					"name": "withdraw",
					"outputs": [],
					"stateMutability": "nonpayable",
					"type": "function"
				}
			],
			"devdoc": {
				"kind": "dev",
				"methods": {},
				"version": 1
			},
			"evm": {
				"assembly": "    /* \"SubastaSandra.sol\":58:5073  contract SubastaSandra {... */\n  mstore(0x40, 0x80)\n    /* \"SubastaSandra.sol\":1077:1174  constructor() {... */\n  callvalue\n  dup1\n  iszero\n  tag_1\n  jumpi\n  0x00\n  dup1\n  revert\ntag_1:\n  pop\n    /* \"SubastaSandra.sol\":1110:1120  msg.sender */\n  caller\n    /* \"SubastaSandra.sol\":1102:1107  owner */\n  0x03\n  0x00\n    /* \"SubastaSandra.sol\":1102:1120  owner = msg.sender */\n  0x0100\n  exp\n  dup2\n  sload\n  dup2\n  0xffffffffffffffffffffffffffffffffffffffff\n  mul\n  not\n  and\n  swap1\n  dup4\n  0xffffffffffffffffffffffffffffffffffffffff\n  and\n  mul\n  or\n  swap1\n  sstore\n  pop\n    /* \"SubastaSandra.sol\":1143:1158  block.timestamp */\n  timestamp\n    /* \"SubastaSandra.sol\":1131:1140  startDate */\n  0x00\n    /* \"SubastaSandra.sol\":1131:1158  startDate = block.timestamp */\n  dup2\n  swap1\n  sstore\n  pop\n    /* \"SubastaSandra.sol\":58:5073  contract SubastaSandra {... */\n  dataSize(sub_0)\n  dup1\n  dataOffset(sub_0)\n  0x00\n  codecopy\n  0x00\n  return\nstop\n\nsub_0: assembly {\n        /* \"SubastaSandra.sol\":58:5073  contract SubastaSandra {... */\n      mstore(0x40, 0x80)\n      jumpi(tag_1, lt(calldatasize, 0x04))\n      shr(0xe0, calldataload(0x00))\n      dup1\n      0x3ccfd60b\n      gt\n      tag_9\n      jumpi\n      dup1\n      0x3ccfd60b\n      eq\n      tag_5\n      jumpi\n      dup1\n      0x8e7ea5b2\n      eq\n      tag_6\n      jumpi\n      dup1\n      0xe3d670d7\n      eq\n      tag_7\n      jumpi\n      dup1\n      0xf0392a88\n      eq\n      tag_8\n      jumpi\n      jump(tag_1)\n    tag_9:\n      dup1\n      0x14d2687c\n      eq\n      tag_2\n      jumpi\n      dup1\n      0x1998aeef\n      eq\n      tag_3\n      jumpi\n      dup1\n      0x1ce2bcf5\n      eq\n      tag_4\n      jumpi\n    tag_1:\n      0x00\n      dup1\n      revert\n        /* \"SubastaSandra.sol\":3028:3121  function showBids() external  view returns (Bidder[] memory){... */\n    tag_2:\n      callvalue\n      dup1\n      iszero\n      tag_10\n      jumpi\n      0x00\n      dup1\n      revert\n    tag_10:\n      pop\n      tag_11\n      tag_12\n      jump\t// in\n    tag_11:\n      mload(0x40)\n      tag_13\n      swap2\n      swap1\n      tag_14\n      jump\t// in\n    tag_13:\n      mload(0x40)\n      dup1\n      swap2\n      sub\n      swap1\n      return\n        /* \"SubastaSandra.sol\":2395:2972  function bid() external payable timeOut isGreater {        ... */\n    tag_3:\n      tag_15\n      tag_16\n      jump\t// in\n    tag_15:\n      stop\n        /* \"SubastaSandra.sol\":3892:4204  function partialRefund() external hasBalance{... */\n    tag_4:\n      callvalue\n      dup1\n      iszero\n      tag_17\n      jumpi\n      0x00\n      dup1\n      revert\n    tag_17:\n      pop\n      tag_18\n      tag_19\n      jump\t// in\n    tag_18:\n      stop\n        /* \"SubastaSandra.sol\":4295:4521  function withdraw() external onlyOwner{... */\n    tag_5:\n      callvalue\n      dup1\n      iszero\n      tag_20\n      jumpi\n      0x00\n      dup1\n      revert\n    tag_20:\n      pop\n      tag_21\n      tag_22\n      jump\t// in\n    tag_21:\n      stop\n        /* \"SubastaSandra.sol\":3213:3319  function getWinner() external view returns(address, uint256) {... */\n    tag_6:\n      callvalue\n      dup1\n      iszero\n      tag_23\n      jumpi\n      0x00\n      dup1\n      revert\n    tag_23:\n      pop\n      tag_24\n      tag_25\n      jump\t// in\n    tag_24:\n      mload(0x40)\n      tag_26\n      swap3\n      swap2\n      swap1\n      tag_27\n      jump\t// in\n    tag_26:\n      mload(0x40)\n      dup1\n      swap2\n      sub\n      swap1\n      return\n        /* \"SubastaSandra.sol\":708:750  mapping (address => Record) public balance */\n    tag_7:\n      callvalue\n      dup1\n      iszero\n      tag_28\n      jumpi\n      0x00\n      dup1\n      revert\n    tag_28:\n      pop\n      tag_29\n      0x04\n      dup1\n      calldatasize\n      sub\n      dup2\n      add\n      swap1\n      tag_30\n      swap2\n      swap1\n      tag_31\n      jump\t// in\n    tag_30:\n      tag_32\n      jump\t// in\n    tag_29:\n      mload(0x40)\n      tag_33\n      swap4\n      swap3\n      swap2\n      swap1\n      tag_34\n      jump\t// in\n    tag_33:\n      mload(0x40)\n      dup1\n      swap2\n      sub\n      swap1\n      return\n        /* \"SubastaSandra.sol\":4600:5069  function endRefund() external onlyOwner{... */\n    tag_8:\n      callvalue\n      dup1\n      iszero\n      tag_35\n      jumpi\n      0x00\n      dup1\n      revert\n    tag_35:\n      pop\n      tag_36\n      tag_37\n      jump\t// in\n    tag_36:\n      stop\n        /* \"SubastaSandra.sol\":3028:3121  function showBids() external  view returns (Bidder[] memory){... */\n    tag_12:\n        /* \"SubastaSandra.sol\":3072:3087  Bidder[] memory */\n      0x60\n        /* \"SubastaSandra.sol\":3106:3113  bidders */\n      0x04\n        /* \"SubastaSandra.sol\":3099:3113  return bidders */\n      dup1\n      sload\n      dup1\n      0x20\n      mul\n      0x20\n      add\n      mload(0x40)\n      swap1\n      dup2\n      add\n      0x40\n      mstore\n      dup1\n      swap3\n      swap2\n      swap1\n      dup2\n      dup2\n      mstore\n      0x20\n      add\n      0x00\n      swap1\n    tag_39:\n      dup3\n      dup3\n      lt\n      iszero\n      tag_40\n      jumpi\n      dup4\n      dup3\n      swap1\n      0x00\n      mstore\n      keccak256(0x00, 0x20)\n      swap1\n      0x02\n      mul\n      add\n      mload(0x40)\n      dup1\n      0x40\n      add\n      0x40\n      mstore\n      swap1\n      dup2\n      0x00\n      dup3\n      add\n      0x00\n      swap1\n      sload\n      swap1\n      0x0100\n      exp\n      swap1\n      div\n      0xffffffffffffffffffffffffffffffffffffffff\n      and\n      0xffffffffffffffffffffffffffffffffffffffff\n      and\n      0xffffffffffffffffffffffffffffffffffffffff\n      and\n      dup2\n      mstore\n      0x20\n      add\n      0x01\n      dup3\n      add\n      sload\n      dup2\n      mstore\n      pop\n      pop\n      dup2\n      mstore\n      0x20\n      add\n      swap1\n      0x01\n      add\n      swap1\n      jump(tag_39)\n    tag_40:\n      pop\n      pop\n      pop\n      pop\n      swap1\n      pop\n        /* \"SubastaSandra.sol\":3028:3121  function showBids() external  view returns (Bidder[] memory){... */\n      swap1\n      jump\t// out\n        /* \"SubastaSandra.sol\":2395:2972  function bid() external payable timeOut isGreater {        ... */\n    tag_16:\n        /* \"SubastaSandra.sol\":1484:1494  10 minutes */\n      0x0258\n        /* \"SubastaSandra.sol\":1472:1481  startDate */\n      sload(0x00)\n        /* \"SubastaSandra.sol\":1472:1494  startDate + 10 minutes */\n      tag_43\n      swap2\n      swap1\n      tag_44\n      jump\t// in\n    tag_43:\n        /* \"SubastaSandra.sol\":1454:1469  block.timestamp */\n      timestamp\n        /* \"SubastaSandra.sol\":1454:1494  block.timestamp < startDate + 10 minutes */\n      lt\n        /* \"SubastaSandra.sol\":1446:1517  require(block.timestamp < startDate + 10 minutes, \"La subasta termino\") */\n      tag_45\n      jumpi\n      mload(0x40)\n      0x08c379a000000000000000000000000000000000000000000000000000000000\n      dup2\n      mstore\n      0x04\n      add\n      tag_46\n      swap1\n      tag_47\n      jump\t// in\n    tag_46:\n      mload(0x40)\n      dup1\n      swap2\n      sub\n      swap1\n      revert\n    tag_45:\n        /* \"SubastaSandra.sol\":1712:1715  100 */\n      0x64\n        /* \"SubastaSandra.sol\":1708:1709  5 */\n      0x05\n        /* \"SubastaSandra.sol\":1697:1705  maxPrice */\n      sload(0x01)\n        /* \"SubastaSandra.sol\":1697:1709  maxPrice * 5 */\n      tag_49\n      swap2\n      swap1\n      tag_50\n      jump\t// in\n    tag_49:\n        /* \"SubastaSandra.sol\":1697:1715  maxPrice * 5 / 100 */\n      tag_51\n      swap2\n      swap1\n      tag_52\n      jump\t// in\n    tag_51:\n        /* \"SubastaSandra.sol\":1686:1694  maxPrice */\n      sload(0x01)\n        /* \"SubastaSandra.sol\":1686:1715  maxPrice + maxPrice * 5 / 100 */\n      tag_53\n      swap2\n      swap1\n      tag_44\n      jump\t// in\n    tag_53:\n        /* \"SubastaSandra.sol\":1674:1683  msg.value */\n      callvalue\n        /* \"SubastaSandra.sol\":1674:1715  msg.value > maxPrice + maxPrice * 5 / 100 */\n      gt\n        /* \"SubastaSandra.sol\":1666:1732  require(msg.value > maxPrice + maxPrice * 5 / 100, \"No superaste\") */\n      tag_54\n      jumpi\n      mload(0x40)\n      0x08c379a000000000000000000000000000000000000000000000000000000000\n      dup2\n      mstore\n      0x04\n      add\n      tag_55\n      swap1\n      tag_56\n      jump\t// in\n    tag_55:\n      mload(0x40)\n      dup1\n      swap2\n      sub\n      swap1\n      revert\n    tag_54:\n        /* \"SubastaSandra.sol\":2464:2483  address _addrBidder */\n      0x00\n        /* \"SubastaSandra.sol\":2486:2496  msg.sender */\n      caller\n        /* \"SubastaSandra.sol\":2464:2496  address _addrBidder = msg.sender */\n      swap1\n      pop\n        /* \"SubastaSandra.sol\":2508:2522  uint256 _price */\n      0x00\n        /* \"SubastaSandra.sol\":2525:2534  msg.value */\n      callvalue\n        /* \"SubastaSandra.sol\":2508:2534  uint256 _price = msg.value */\n      swap1\n      pop\n        /* \"SubastaSandra.sol\":2545:2552  bidders */\n      0x04\n        /* \"SubastaSandra.sol\":2558:2585  Bidder(_addrBidder, _price) */\n      mload(0x40)\n      dup1\n      0x40\n      add\n      0x40\n      mstore\n      dup1\n        /* \"SubastaSandra.sol\":2565:2576  _addrBidder */\n      dup5\n        /* \"SubastaSandra.sol\":2558:2585  Bidder(_addrBidder, _price) */\n      0xffffffffffffffffffffffffffffffffffffffff\n      and\n      dup2\n      mstore\n      0x20\n      add\n        /* \"SubastaSandra.sol\":2578:2584  _price */\n      dup4\n        /* \"SubastaSandra.sol\":2558:2585  Bidder(_addrBidder, _price) */\n      dup2\n      mstore\n      pop\n        /* \"SubastaSandra.sol\":2545:2586  bidders.push(Bidder(_addrBidder, _price)) */\n      swap1\n      dup1\n      0x01\n      dup2\n      sload\n      add\n      dup1\n      dup3\n      sstore\n      dup1\n      swap2\n      pop\n      pop\n      0x01\n      swap1\n      sub\n      swap1\n      0x00\n      mstore\n      keccak256(0x00, 0x20)\n      swap1\n      0x02\n      mul\n      add\n      0x00\n      swap1\n      swap2\n      swap1\n      swap2\n      swap1\n      swap2\n      pop\n      0x00\n      dup3\n      add\n      mload\n      dup2\n      0x00\n      add\n      exp(0x0100, 0x00)\n      dup2\n      sload\n      dup2\n      0xffffffffffffffffffffffffffffffffffffffff\n      mul\n      not\n      and\n      swap1\n      dup4\n      0xffffffffffffffffffffffffffffffffffffffff\n      and\n      mul\n      or\n      swap1\n      sstore\n      pop\n      0x20\n      dup3\n      add\n      mload\n      dup2\n      0x01\n      add\n      sstore\n      pop\n      pop\n        /* \"SubastaSandra.sol\":2638:2639  0 */\n      0x00\n        /* \"SubastaSandra.sol\":2608:2615  balance */\n      0x05\n        /* \"SubastaSandra.sol\":2608:2628  balance[_addrBidder] */\n      0x00\n        /* \"SubastaSandra.sol\":2616:2627  _addrBidder */\n      dup5\n        /* \"SubastaSandra.sol\":2608:2628  balance[_addrBidder] */\n      0xffffffffffffffffffffffffffffffffffffffff\n      and\n      0xffffffffffffffffffffffffffffffffffffffff\n      and\n      dup2\n      mstore\n      0x20\n      add\n      swap1\n      dup2\n      mstore\n      0x20\n      add\n      0x00\n      keccak256\n        /* \"SubastaSandra.sol\":2608:2636  balance[_addrBidder].balance */\n      0x02\n      add\n      sload\n        /* \"SubastaSandra.sol\":2608:2639  balance[_addrBidder].balance==0 */\n      sub\n        /* \"SubastaSandra.sol\":2605:2712  if(balance[_addrBidder].balance==0){... */\n      tag_59\n      jumpi\n        /* \"SubastaSandra.sol\":2655:2666  uniqueAddrs */\n      0x06\n        /* \"SubastaSandra.sol\":2672:2683  _addrBidder */\n      dup3\n        /* \"SubastaSandra.sol\":2655:2684  uniqueAddrs.push(_addrBidder) */\n      swap1\n      dup1\n      0x01\n      dup2\n      sload\n      add\n      dup1\n      dup3\n      sstore\n      dup1\n      swap2\n      pop\n      pop\n      0x01\n      swap1\n      sub\n      swap1\n      0x00\n      mstore\n      keccak256(0x00, 0x20)\n      add\n      0x00\n      swap1\n      swap2\n      swap1\n      swap2\n      swap1\n      swap2\n      0x0100\n      exp\n      dup2\n      sload\n      dup2\n      0xffffffffffffffffffffffffffffffffffffffff\n      mul\n      not\n      and\n      swap1\n      dup4\n      0xffffffffffffffffffffffffffffffffffffffff\n      and\n      mul\n      or\n      swap1\n      sstore\n      pop\n        /* \"SubastaSandra.sol\":2605:2712  if(balance[_addrBidder].balance==0){... */\n    tag_59:\n        /* \"SubastaSandra.sol\":2753:2759  _price */\n      dup1\n        /* \"SubastaSandra.sol\":2722:2729  balance */\n      0x05\n        /* \"SubastaSandra.sol\":2722:2742  balance[_addrBidder] */\n      0x00\n        /* \"SubastaSandra.sol\":2730:2741  _addrBidder */\n      dup5\n        /* \"SubastaSandra.sol\":2722:2742  balance[_addrBidder] */\n      0xffffffffffffffffffffffffffffffffffffffff\n      and\n      0xffffffffffffffffffffffffffffffffffffffff\n      and\n      dup2\n      mstore\n      0x20\n      add\n      swap1\n      dup2\n      mstore\n      0x20\n      add\n      0x00\n      keccak256\n        /* \"SubastaSandra.sol\":2722:2750  balance[_addrBidder].balance */\n      0x02\n      add\n      0x00\n        /* \"SubastaSandra.sol\":2722:2759  balance[_addrBidder].balance +=_price */\n      dup3\n      dup3\n      sload\n      tag_61\n      swap2\n      swap1\n      tag_44\n      jump\t// in\n    tag_61:\n      swap3\n      pop\n      pop\n      dup2\n      swap1\n      sstore\n      pop\n        /* \"SubastaSandra.sol\":2798:2804  _price */\n      dup1\n        /* \"SubastaSandra.sol\":2770:2777  balance */\n      0x05\n        /* \"SubastaSandra.sol\":2770:2790  balance[_addrBidder] */\n      0x00\n        /* \"SubastaSandra.sol\":2778:2789  _addrBidder */\n      dup5\n        /* \"SubastaSandra.sol\":2770:2790  balance[_addrBidder] */\n      0xffffffffffffffffffffffffffffffffffffffff\n      and\n      0xffffffffffffffffffffffffffffffffffffffff\n      and\n      dup2\n      mstore\n      0x20\n      add\n      swap1\n      dup2\n      mstore\n      0x20\n      add\n      0x00\n      keccak256\n        /* \"SubastaSandra.sol\":2770:2796  balance[_addrBidder].price */\n      0x01\n      add\n        /* \"SubastaSandra.sol\":2770:2804  balance[_addrBidder].price =_price */\n      dup2\n      swap1\n      sstore\n      pop\n        /* \"SubastaSandra.sol\":2827:2842  block.timestamp */\n      timestamp\n        /* \"SubastaSandra.sol\":2815:2824  startDate */\n      0x00\n        /* \"SubastaSandra.sol\":2815:2842  startDate = block.timestamp */\n      dup2\n      swap1\n      sstore\n      pop\n        /* \"SubastaSandra.sol\":2869:2875  _price */\n      dup1\n        /* \"SubastaSandra.sol\":2858:2866  maxPrice */\n      0x01\n        /* \"SubastaSandra.sol\":2858:2875  maxPrice = _price */\n      dup2\n      swap1\n      sstore\n      pop\n        /* \"SubastaSandra.sol\":2897:2908  _addrBidder */\n      dup2\n        /* \"SubastaSandra.sol\":2887:2894  maxAddr */\n      0x02\n      0x00\n        /* \"SubastaSandra.sol\":2887:2908  maxAddr = _addrBidder */\n      0x0100\n      exp\n      dup2\n      sload\n      dup2\n      0xffffffffffffffffffffffffffffffffffffffff\n      mul\n      not\n      and\n      swap1\n      dup4\n      0xffffffffffffffffffffffffffffffffffffffff\n      and\n      mul\n      or\n      swap1\n      sstore\n      pop\n        /* \"SubastaSandra.sol\":2944:2955  _addrBidder */\n      dup2\n        /* \"SubastaSandra.sol\":2930:2964  NewBidCreated(_addrBidder, _price) */\n      0xffffffffffffffffffffffffffffffffffffffff\n      and\n      0xf0aeee3b2529b7f726e417ef1625affef3c5af580cfa8fc6f93109b7c43bcbbb\n        /* \"SubastaSandra.sol\":2957:2963  _price */\n      dup3\n        /* \"SubastaSandra.sol\":2930:2964  NewBidCreated(_addrBidder, _price) */\n      mload(0x40)\n      tag_62\n      swap2\n      swap1\n      tag_63\n      jump\t// in\n    tag_62:\n      mload(0x40)\n      dup1\n      swap2\n      sub\n      swap1\n      log2\n        /* \"SubastaSandra.sol\":2445:2972  {        ... */\n      pop\n      pop\n        /* \"SubastaSandra.sol\":2395:2972  function bid() external payable timeOut isGreater {        ... */\n      jump\t// out\n        /* \"SubastaSandra.sol\":3892:4204  function partialRefund() external hasBalance{... */\n    tag_19:\n        /* \"SubastaSandra.sol\":1893:1901  maxPrice */\n      sload(0x01)\n        /* \"SubastaSandra.sol\":1863:1870  balance */\n      0x05\n        /* \"SubastaSandra.sol\":1863:1882  balance[msg.sender] */\n      0x00\n        /* \"SubastaSandra.sol\":1871:1881  msg.sender */\n      caller\n        /* \"SubastaSandra.sol\":1863:1882  balance[msg.sender] */\n      0xffffffffffffffffffffffffffffffffffffffff\n      and\n      0xffffffffffffffffffffffffffffffffffffffff\n      and\n      dup2\n      mstore\n      0x20\n      add\n      swap1\n      dup2\n      mstore\n      0x20\n      add\n      0x00\n      keccak256\n        /* \"SubastaSandra.sol\":1863:1890  balance[msg.sender].balance */\n      0x02\n      add\n      sload\n        /* \"SubastaSandra.sol\":1863:1901  balance[msg.sender].balance > maxPrice */\n      gt\n        /* \"SubastaSandra.sol\":1855:1921  require(balance[msg.sender].balance > maxPrice, \"Nada a devolver\") */\n      tag_65\n      jumpi\n      mload(0x40)\n      0x08c379a000000000000000000000000000000000000000000000000000000000\n      dup2\n      mstore\n      0x04\n      add\n      tag_66\n      swap1\n      tag_67\n      jump\t// in\n    tag_66:\n      mload(0x40)\n      dup1\n      swap2\n      sub\n      swap1\n      revert\n    tag_65:\n        /* \"SubastaSandra.sol\":3947:3968  address _addrToRefund */\n      0x00\n        /* \"SubastaSandra.sol\":3971:3981  msg.sender */\n      caller\n        /* \"SubastaSandra.sol\":3947:3981  address _addrToRefund = msg.sender */\n      swap1\n      pop\n        /* \"SubastaSandra.sol\":3992:4008  uint256 _balance */\n      0x00\n        /* \"SubastaSandra.sol\":4011:4018  balance */\n      0x05\n        /* \"SubastaSandra.sol\":4011:4033  balance[_addrToRefund] */\n      0x00\n        /* \"SubastaSandra.sol\":4019:4032  _addrToRefund */\n      dup4\n        /* \"SubastaSandra.sol\":4011:4033  balance[_addrToRefund] */\n      0xffffffffffffffffffffffffffffffffffffffff\n      and\n      0xffffffffffffffffffffffffffffffffffffffff\n      and\n      dup2\n      mstore\n      0x20\n      add\n      swap1\n      dup2\n      mstore\n      0x20\n      add\n      0x00\n      keccak256\n        /* \"SubastaSandra.sol\":4011:4041  balance[_addrToRefund].balance */\n      0x02\n      add\n      sload\n        /* \"SubastaSandra.sol\":3992:4041  uint256 _balance = balance[_addrToRefund].balance */\n      swap1\n      pop\n        /* \"SubastaSandra.sol\":4052:4066  uint256 _price */\n      0x00\n        /* \"SubastaSandra.sol\":4069:4076  balance */\n      0x05\n        /* \"SubastaSandra.sol\":4069:4091  balance[_addrToRefund] */\n      0x00\n        /* \"SubastaSandra.sol\":4077:4090  _addrToRefund */\n      dup5\n        /* \"SubastaSandra.sol\":4069:4091  balance[_addrToRefund] */\n      0xffffffffffffffffffffffffffffffffffffffff\n      and\n      0xffffffffffffffffffffffffffffffffffffffff\n      and\n      dup2\n      mstore\n      0x20\n      add\n      swap1\n      dup2\n      mstore\n      0x20\n      add\n      0x00\n      keccak256\n        /* \"SubastaSandra.sol\":4069:4097  balance[_addrToRefund].price */\n      0x01\n      add\n      sload\n        /* \"SubastaSandra.sol\":4052:4097  uint256 _price = balance[_addrToRefund].price */\n      swap1\n      pop\n        /* \"SubastaSandra.sol\":4108:4127  uint256 _difference */\n      0x00\n        /* \"SubastaSandra.sol\":4142:4148  _price */\n      dup2\n        /* \"SubastaSandra.sol\":4131:4139  _balance */\n      dup4\n        /* \"SubastaSandra.sol\":4131:4148  _balance - _price */\n      tag_69\n      swap2\n      swap1\n      tag_70\n      jump\t// in\n    tag_69:\n        /* \"SubastaSandra.sol\":4108:4149  uint256 _difference = (_balance - _price) */\n      swap1\n      pop\n        /* \"SubastaSandra.sol\":4161:4195  refund(_addrToRefund, _difference) */\n      tag_71\n        /* \"SubastaSandra.sol\":4168:4181  _addrToRefund */\n      dup5\n        /* \"SubastaSandra.sol\":4183:4194  _difference */\n      dup3\n        /* \"SubastaSandra.sol\":4161:4167  refund */\n      tag_72\n        /* \"SubastaSandra.sol\":4161:4195  refund(_addrToRefund, _difference) */\n      jump\t// in\n    tag_71:\n        /* \"SubastaSandra.sol\":3936:4204  {... */\n      pop\n      pop\n      pop\n      pop\n        /* \"SubastaSandra.sol\":3892:4204  function partialRefund() external hasBalance{... */\n      jump\t// out\n        /* \"SubastaSandra.sol\":4295:4521  function withdraw() external onlyOwner{... */\n    tag_22:\n        /* \"SubastaSandra.sol\":1296:1301  owner */\n      0x03\n      0x00\n      swap1\n      sload\n      swap1\n      0x0100\n      exp\n      swap1\n      div\n      0xffffffffffffffffffffffffffffffffffffffff\n      and\n        /* \"SubastaSandra.sol\":1282:1301  msg.sender == owner */\n      0xffffffffffffffffffffffffffffffffffffffff\n      and\n        /* \"SubastaSandra.sol\":1282:1292  msg.sender */\n      caller\n        /* \"SubastaSandra.sol\":1282:1301  msg.sender == owner */\n      0xffffffffffffffffffffffffffffffffffffffff\n      and\n      eq\n        /* \"SubastaSandra.sol\":1274:1319  require(msg.sender == owner, \"No autorizado\") */\n      tag_74\n      jumpi\n      mload(0x40)\n      0x08c379a000000000000000000000000000000000000000000000000000000000\n      dup2\n      mstore\n      0x04\n      add\n      tag_75\n      swap1\n      tag_76\n      jump\t// in\n    tag_75:\n      mload(0x40)\n      dup1\n      swap2\n      sub\n      swap1\n      revert\n    tag_74:\n        /* \"SubastaSandra.sol\":4382:4392  10 minutes */\n      0x0258\n        /* \"SubastaSandra.sol\":4370:4379  startDate */\n      sload(0x00)\n        /* \"SubastaSandra.sol\":4370:4392  startDate + 10 minutes */\n      tag_78\n      swap2\n      swap1\n      tag_44\n      jump\t// in\n    tag_78:\n        /* \"SubastaSandra.sol\":4352:4367  block.timestamp */\n      timestamp\n        /* \"SubastaSandra.sol\":4352:4392  block.timestamp > startDate + 10 minutes */\n      gt\n        /* \"SubastaSandra.sol\":4344:4418  require(block.timestamp > startDate + 10 minutes, \"La subasta no termino\") */\n      tag_79\n      jumpi\n      mload(0x40)\n      0x08c379a000000000000000000000000000000000000000000000000000000000\n      dup2\n      mstore\n      0x04\n      add\n      tag_80\n      swap1\n      tag_81\n      jump\t// in\n    tag_80:\n      mload(0x40)\n      dup1\n      swap2\n      sub\n      swap1\n      revert\n    tag_79:\n        /* \"SubastaSandra.sol\":4437:4447  msg.sender */\n      caller\n        /* \"SubastaSandra.sol\":4429:4457  payable(msg.sender).transfer */\n      0xffffffffffffffffffffffffffffffffffffffff\n      and\n        /* \"SubastaSandra.sol\":4429:4480  payable(msg.sender).transfer(address(this).balance) */\n      0x08fc\n        /* \"SubastaSandra.sol\":4458:4479  address(this).balance */\n      selfbalance\n        /* \"SubastaSandra.sol\":4429:4480  payable(msg.sender).transfer(address(this).balance) */\n      swap1\n      dup2\n      iszero\n      mul\n      swap1\n      mload(0x40)\n      0x00\n      mload(0x40)\n      dup1\n      dup4\n      sub\n      dup2\n      dup6\n      dup9\n      dup9\n      call\n      swap4\n      pop\n      pop\n      pop\n      pop\n      iszero\n      dup1\n      iszero\n      tag_83\n      jumpi\n      returndatasize\n      0x00\n      dup1\n      returndatacopy\n      revert(0x00, returndatasize)\n    tag_83:\n      pop\n        /* \"SubastaSandra.sol\":4295:4521  function withdraw() external onlyOwner{... */\n      jump\t// out\n        /* \"SubastaSandra.sol\":3213:3319  function getWinner() external view returns(address, uint256) {... */\n    tag_25:\n        /* \"SubastaSandra.sol\":3256:3263  address */\n      0x00\n        /* \"SubastaSandra.sol\":3265:3272  uint256 */\n      dup1\n        /* \"SubastaSandra.sol\":3293:3300  maxAddr */\n      0x02\n      0x00\n      swap1\n      sload\n      swap1\n      0x0100\n      exp\n      swap1\n      div\n      0xffffffffffffffffffffffffffffffffffffffff\n      and\n        /* \"SubastaSandra.sol\":3302:3310  maxPrice */\n      sload(0x01)\n        /* \"SubastaSandra.sol\":3285:3311  return (maxAddr, maxPrice) */\n      swap2\n      pop\n      swap2\n      pop\n        /* \"SubastaSandra.sol\":3213:3319  function getWinner() external view returns(address, uint256) {... */\n      swap1\n      swap2\n      jump\t// out\n        /* \"SubastaSandra.sol\":708:750  mapping (address => Record) public balance */\n    tag_32:\n      mstore(0x20, 0x05)\n      dup1\n      0x00\n      mstore\n      keccak256(0x00, 0x40)\n      0x00\n      swap2\n      pop\n      swap1\n      pop\n      dup1\n      0x00\n      add\n      0x00\n      swap1\n      sload\n      swap1\n      0x0100\n      exp\n      swap1\n      div\n      0xffffffffffffffffffffffffffffffffffffffff\n      and\n      swap1\n      dup1\n      0x01\n      add\n      sload\n      swap1\n      dup1\n      0x02\n      add\n      sload\n      swap1\n      pop\n      dup4\n      jump\t// out\n        /* \"SubastaSandra.sol\":4600:5069  function endRefund() external onlyOwner{... */\n    tag_37:\n        /* \"SubastaSandra.sol\":1296:1301  owner */\n      0x03\n      0x00\n      swap1\n      sload\n      swap1\n      0x0100\n      exp\n      swap1\n      div\n      0xffffffffffffffffffffffffffffffffffffffff\n      and\n        /* \"SubastaSandra.sol\":1282:1301  msg.sender == owner */\n      0xffffffffffffffffffffffffffffffffffffffff\n      and\n        /* \"SubastaSandra.sol\":1282:1292  msg.sender */\n      caller\n        /* \"SubastaSandra.sol\":1282:1301  msg.sender == owner */\n      0xffffffffffffffffffffffffffffffffffffffff\n      and\n      eq\n        /* \"SubastaSandra.sol\":1274:1319  require(msg.sender == owner, \"No autorizado\") */\n      tag_86\n      jumpi\n      mload(0x40)\n      0x08c379a000000000000000000000000000000000000000000000000000000000\n      dup2\n      mstore\n      0x04\n      add\n      tag_87\n      swap1\n      tag_76\n      jump\t// in\n    tag_87:\n      mload(0x40)\n      dup1\n      swap2\n      sub\n      swap1\n      revert\n    tag_86:\n        /* \"SubastaSandra.sol\":4688:4698  10 minutes */\n      0x0258\n        /* \"SubastaSandra.sol\":4676:4685  startDate */\n      sload(0x00)\n        /* \"SubastaSandra.sol\":4676:4698  startDate + 10 minutes */\n      tag_89\n      swap2\n      swap1\n      tag_44\n      jump\t// in\n    tag_89:\n        /* \"SubastaSandra.sol\":4658:4673  block.timestamp */\n      timestamp\n        /* \"SubastaSandra.sol\":4658:4698  block.timestamp > startDate + 10 minutes */\n      gt\n        /* \"SubastaSandra.sol\":4650:4724  require(block.timestamp > startDate + 10 minutes, \"La subasta no termino\") */\n      tag_90\n      jumpi\n      mload(0x40)\n      0x08c379a000000000000000000000000000000000000000000000000000000000\n      dup2\n      mstore\n      0x04\n      add\n      tag_91\n      swap1\n      tag_81\n      jump\t// in\n    tag_91:\n      mload(0x40)\n      dup1\n      swap2\n      sub\n      swap1\n      revert\n    tag_90:\n        /* \"SubastaSandra.sol\":4763:4788  refund(maxAddr, maxPrice) */\n      tag_92\n        /* \"SubastaSandra.sol\":4770:4777  maxAddr */\n      0x02\n      0x00\n      swap1\n      sload\n      swap1\n      0x0100\n      exp\n      swap1\n      div\n      0xffffffffffffffffffffffffffffffffffffffff\n      and\n        /* \"SubastaSandra.sol\":4779:4787  maxPrice */\n      sload(0x01)\n        /* \"SubastaSandra.sol\":4763:4769  refund */\n      tag_72\n        /* \"SubastaSandra.sol\":4763:4788  refund(maxAddr, maxPrice) */\n      jump\t// in\n    tag_92:\n        /* \"SubastaSandra.sol\":4836:4847  uint256 len */\n      0x00\n        /* \"SubastaSandra.sol\":4850:4861  uniqueAddrs */\n      0x06\n        /* \"SubastaSandra.sol\":4850:4868  uniqueAddrs.length */\n      dup1\n      sload\n      swap1\n      pop\n        /* \"SubastaSandra.sol\":4836:4868  uint256 len = uniqueAddrs.length */\n      swap1\n      pop\n        /* \"SubastaSandra.sol\":4883:4892  uint256 i */\n      0x00\n        /* \"SubastaSandra.sol\":4879:5062  for(uint256 i=0; i< len; i++){... */\n    tag_93:\n        /* \"SubastaSandra.sol\":4899:4902  len */\n      dup2\n        /* \"SubastaSandra.sol\":4896:4897  i */\n      dup2\n        /* \"SubastaSandra.sol\":4896:4902  i< len */\n      lt\n        /* \"SubastaSandra.sol\":4879:5062  for(uint256 i=0; i< len; i++){... */\n      iszero\n      tag_94\n      jumpi\n        /* \"SubastaSandra.sol\":4958:4959  0 */\n      0x00\n        /* \"SubastaSandra.sol\":4926:4933  balance */\n      0x05\n        /* \"SubastaSandra.sol\":4926:4949  balance[uniqueAddrs[i]] */\n      0x00\n        /* \"SubastaSandra.sol\":4934:4945  uniqueAddrs */\n      0x06\n        /* \"SubastaSandra.sol\":4946:4947  i */\n      dup5\n        /* \"SubastaSandra.sol\":4934:4948  uniqueAddrs[i] */\n      dup2\n      sload\n      dup2\n      lt\n      tag_96\n      jumpi\n      tag_97\n      tag_98\n      jump\t// in\n    tag_97:\n    tag_96:\n      swap1\n      0x00\n      mstore\n      keccak256(0x00, 0x20)\n      add\n      0x00\n      swap1\n      sload\n      swap1\n      0x0100\n      exp\n      swap1\n      div\n      0xffffffffffffffffffffffffffffffffffffffff\n      and\n        /* \"SubastaSandra.sol\":4926:4949  balance[uniqueAddrs[i]] */\n      0xffffffffffffffffffffffffffffffffffffffff\n      and\n      0xffffffffffffffffffffffffffffffffffffffff\n      and\n      dup2\n      mstore\n      0x20\n      add\n      swap1\n      dup2\n      mstore\n      0x20\n      add\n      0x00\n      keccak256\n        /* \"SubastaSandra.sol\":4926:4957  balance[uniqueAddrs[i]].balance */\n      0x02\n      add\n      sload\n        /* \"SubastaSandra.sol\":4926:4959  balance[uniqueAddrs[i]].balance>0 */\n      gt\n        /* \"SubastaSandra.sol\":4923:5051  if(balance[uniqueAddrs[i]].balance>0) {... */\n      iszero\n      tag_100\n      jumpi\n        /* \"SubastaSandra.sol\":4980:5035  refund(uniqueAddrs[i], balance[uniqueAddrs[i]].balance) */\n      tag_101\n        /* \"SubastaSandra.sol\":4987:4998  uniqueAddrs */\n      0x06\n        /* \"SubastaSandra.sol\":4999:5000  i */\n      dup3\n        /* \"SubastaSandra.sol\":4987:5001  uniqueAddrs[i] */\n      dup2\n      sload\n      dup2\n      lt\n      tag_102\n      jumpi\n      tag_103\n      tag_98\n      jump\t// in\n    tag_103:\n    tag_102:\n      swap1\n      0x00\n      mstore\n      keccak256(0x00, 0x20)\n      add\n      0x00\n      swap1\n      sload\n      swap1\n      0x0100\n      exp\n      swap1\n      div\n      0xffffffffffffffffffffffffffffffffffffffff\n      and\n        /* \"SubastaSandra.sol\":5003:5010  balance */\n      0x05\n        /* \"SubastaSandra.sol\":5003:5026  balance[uniqueAddrs[i]] */\n      0x00\n        /* \"SubastaSandra.sol\":5011:5022  uniqueAddrs */\n      0x06\n        /* \"SubastaSandra.sol\":5023:5024  i */\n      dup6\n        /* \"SubastaSandra.sol\":5011:5025  uniqueAddrs[i] */\n      dup2\n      sload\n      dup2\n      lt\n      tag_105\n      jumpi\n      tag_106\n      tag_98\n      jump\t// in\n    tag_106:\n    tag_105:\n      swap1\n      0x00\n      mstore\n      keccak256(0x00, 0x20)\n      add\n      0x00\n      swap1\n      sload\n      swap1\n      0x0100\n      exp\n      swap1\n      div\n      0xffffffffffffffffffffffffffffffffffffffff\n      and\n        /* \"SubastaSandra.sol\":5003:5026  balance[uniqueAddrs[i]] */\n      0xffffffffffffffffffffffffffffffffffffffff\n      and\n      0xffffffffffffffffffffffffffffffffffffffff\n      and\n      dup2\n      mstore\n      0x20\n      add\n      swap1\n      dup2\n      mstore\n      0x20\n      add\n      0x00\n      keccak256\n        /* \"SubastaSandra.sol\":5003:5034  balance[uniqueAddrs[i]].balance */\n      0x02\n      add\n      sload\n        /* \"SubastaSandra.sol\":4980:4986  refund */\n      tag_72\n        /* \"SubastaSandra.sol\":4980:5035  refund(uniqueAddrs[i], balance[uniqueAddrs[i]].balance) */\n      jump\t// in\n    tag_101:\n        /* \"SubastaSandra.sol\":4923:5051  if(balance[uniqueAddrs[i]].balance>0) {... */\n    tag_100:\n        /* \"SubastaSandra.sol\":4904:4907  i++ */\n      dup1\n      dup1\n      0x01\n      add\n      swap2\n      pop\n      pop\n        /* \"SubastaSandra.sol\":4879:5062  for(uint256 i=0; i< len; i++){... */\n      jump(tag_93)\n    tag_94:\n      pop\n        /* \"SubastaSandra.sol\":4639:5069  {... */\n      pop\n        /* \"SubastaSandra.sol\":4600:5069  function endRefund() external onlyOwner{... */\n      jump\t// out\n        /* \"SubastaSandra.sol\":3490:3847  function  refund(address _addr, uint256 _value) private{... */\n    tag_72:\n        /* \"SubastaSandra.sol\":3556:3578  uint256 _valueAfterGas */\n      0x00\n        /* \"SubastaSandra.sol\":3607:3610  100 */\n      0x64\n        /* \"SubastaSandra.sol\":3603:3604  2 */\n      0x02\n        /* \"SubastaSandra.sol\":3593:3599  _value */\n      dup4\n        /* \"SubastaSandra.sol\":3592:3604  (_value) * 2 */\n      tag_109\n      swap2\n      swap1\n      tag_50\n      jump\t// in\n    tag_109:\n        /* \"SubastaSandra.sol\":3592:3610  (_value) * 2 / 100 */\n      tag_110\n      swap2\n      swap1\n      tag_52\n      jump\t// in\n    tag_110:\n        /* \"SubastaSandra.sol\":3582:3588  _value */\n      dup3\n        /* \"SubastaSandra.sol\":3581:3610  (_value) - (_value) * 2 / 100 */\n      tag_111\n      swap2\n      swap1\n      tag_70\n      jump\t// in\n    tag_111:\n        /* \"SubastaSandra.sol\":3556:3610  uint256 _valueAfterGas = (_value) - (_value) * 2 / 100 */\n      swap1\n      pop\n        /* \"SubastaSandra.sol\":3644:3669  address payable _receiver */\n      0x00\n        /* \"SubastaSandra.sol\":3680:3685  _addr */\n      dup4\n        /* \"SubastaSandra.sol\":3644:3686  address payable _receiver = payable(_addr) */\n      swap1\n      pop\n        /* \"SubastaSandra.sol\":3697:3706  _receiver */\n      dup1\n        /* \"SubastaSandra.sol\":3697:3715  _receiver.transfer */\n      0xffffffffffffffffffffffffffffffffffffffff\n      and\n        /* \"SubastaSandra.sol\":3697:3731  _receiver.transfer(_valueAfterGas) */\n      0x08fc\n        /* \"SubastaSandra.sol\":3716:3730  _valueAfterGas */\n      dup4\n        /* \"SubastaSandra.sol\":3697:3731  _receiver.transfer(_valueAfterGas) */\n      swap1\n      dup2\n      iszero\n      mul\n      swap1\n      mload(0x40)\n      0x00\n      mload(0x40)\n      dup1\n      dup4\n      sub\n      dup2\n      dup6\n      dup9\n      dup9\n      call\n      swap4\n      pop\n      pop\n      pop\n      pop\n      iszero\n      dup1\n      iszero\n      tag_113\n      jumpi\n      returndatasize\n      0x00\n      dup1\n      returndatacopy\n      revert(0x00, returndatasize)\n    tag_113:\n      pop\n        /* \"SubastaSandra.sol\":3832:3838  _value */\n      dup3\n        /* \"SubastaSandra.sol\":3807:3814  balance */\n      0x05\n        /* \"SubastaSandra.sol\":3807:3821  balance[_addr] */\n      0x00\n        /* \"SubastaSandra.sol\":3815:3820  _addr */\n      dup7\n        /* \"SubastaSandra.sol\":3807:3821  balance[_addr] */\n      0xffffffffffffffffffffffffffffffffffffffff\n      and\n      0xffffffffffffffffffffffffffffffffffffffff\n      and\n      dup2\n      mstore\n      0x20\n      add\n      swap1\n      dup2\n      mstore\n      0x20\n      add\n      0x00\n      keccak256\n        /* \"SubastaSandra.sol\":3807:3829  balance[_addr].balance */\n      0x02\n      add\n      0x00\n        /* \"SubastaSandra.sol\":3807:3838  balance[_addr].balance -=_value */\n      dup3\n      dup3\n      sload\n      tag_114\n      swap2\n      swap1\n      tag_70\n      jump\t// in\n    tag_114:\n      swap3\n      pop\n      pop\n      dup2\n      swap1\n      sstore\n      pop\n        /* \"SubastaSandra.sol\":3545:3847  {... */\n      pop\n      pop\n        /* \"SubastaSandra.sol\":3490:3847  function  refund(address _addr, uint256 _value) private{... */\n      pop\n      pop\n      jump\t// out\n        /* \"#utility.yul\":7:143   */\n    tag_115:\n        /* \"#utility.yul\":96:102   */\n      0x00\n        /* \"#utility.yul\":130:135   */\n      dup2\n        /* \"#utility.yul\":124:136   */\n      mload\n        /* \"#utility.yul\":114:136   */\n      swap1\n      pop\n        /* \"#utility.yul\":7:143   */\n      swap2\n      swap1\n      pop\n      jump\t// out\n        /* \"#utility.yul\":149:355   */\n    tag_116:\n        /* \"#utility.yul\":270:281   */\n      0x00\n        /* \"#utility.yul\":304:310   */\n      dup3\n        /* \"#utility.yul\":299:302   */\n      dup3\n        /* \"#utility.yul\":292:311   */\n      mstore\n        /* \"#utility.yul\":344:348   */\n      0x20\n        /* \"#utility.yul\":339:342   */\n      dup3\n        /* \"#utility.yul\":335:349   */\n      add\n        /* \"#utility.yul\":320:349   */\n      swap1\n      pop\n        /* \"#utility.yul\":149:355   */\n      swap3\n      swap2\n      pop\n      pop\n      jump\t// out\n        /* \"#utility.yul\":361:515   */\n    tag_117:\n        /* \"#utility.yul\":450:454   */\n      0x00\n        /* \"#utility.yul\":473:476   */\n      dup2\n        /* \"#utility.yul\":465:476   */\n      swap1\n      pop\n        /* \"#utility.yul\":503:507   */\n      0x20\n        /* \"#utility.yul\":498:501   */\n      dup3\n        /* \"#utility.yul\":494:508   */\n      add\n        /* \"#utility.yul\":486:508   */\n      swap1\n      pop\n        /* \"#utility.yul\":361:515   */\n      swap2\n      swap1\n      pop\n      jump\t// out\n        /* \"#utility.yul\":521:647   */\n    tag_118:\n        /* \"#utility.yul\":558:565   */\n      0x00\n        /* \"#utility.yul\":598:640   */\n      0xffffffffffffffffffffffffffffffffffffffff\n        /* \"#utility.yul\":591:596   */\n      dup3\n        /* \"#utility.yul\":587:641   */\n      and\n        /* \"#utility.yul\":576:641   */\n      swap1\n      pop\n        /* \"#utility.yul\":521:647   */\n      swap2\n      swap1\n      pop\n      jump\t// out\n        /* \"#utility.yul\":653:749   */\n    tag_119:\n        /* \"#utility.yul\":690:697   */\n      0x00\n        /* \"#utility.yul\":719:743   */\n      tag_153\n        /* \"#utility.yul\":737:742   */\n      dup3\n        /* \"#utility.yul\":719:743   */\n      tag_118\n      jump\t// in\n    tag_153:\n        /* \"#utility.yul\":708:743   */\n      swap1\n      pop\n        /* \"#utility.yul\":653:749   */\n      swap2\n      swap1\n      pop\n      jump\t// out\n        /* \"#utility.yul\":755:863   */\n    tag_120:\n        /* \"#utility.yul\":832:856   */\n      tag_155\n        /* \"#utility.yul\":850:855   */\n      dup2\n        /* \"#utility.yul\":832:856   */\n      tag_119\n      jump\t// in\n    tag_155:\n        /* \"#utility.yul\":827:830   */\n      dup3\n        /* \"#utility.yul\":820:857   */\n      mstore\n        /* \"#utility.yul\":755:863   */\n      pop\n      pop\n      jump\t// out\n        /* \"#utility.yul\":869:946   */\n    tag_121:\n        /* \"#utility.yul\":906:913   */\n      0x00\n        /* \"#utility.yul\":935:940   */\n      dup2\n        /* \"#utility.yul\":924:940   */\n      swap1\n      pop\n        /* \"#utility.yul\":869:946   */\n      swap2\n      swap1\n      pop\n      jump\t// out\n        /* \"#utility.yul\":952:1060   */\n    tag_122:\n        /* \"#utility.yul\":1029:1053   */\n      tag_158\n        /* \"#utility.yul\":1047:1052   */\n      dup2\n        /* \"#utility.yul\":1029:1053   */\n      tag_121\n      jump\t// in\n    tag_158:\n        /* \"#utility.yul\":1024:1027   */\n      dup3\n        /* \"#utility.yul\":1017:1054   */\n      mstore\n        /* \"#utility.yul\":952:1060   */\n      pop\n      pop\n      jump\t// out\n        /* \"#utility.yul\":1132:1630   */\n    tag_123:\n        /* \"#utility.yul\":1263:1267   */\n      0x40\n        /* \"#utility.yul\":1258:1261   */\n      dup3\n        /* \"#utility.yul\":1254:1268   */\n      add\n        /* \"#utility.yul\":1356:1360   */\n      0x00\n        /* \"#utility.yul\":1349:1354   */\n      dup3\n        /* \"#utility.yul\":1345:1361   */\n      add\n        /* \"#utility.yul\":1339:1362   */\n      mload\n        /* \"#utility.yul\":1375:1438   */\n      tag_160\n        /* \"#utility.yul\":1432:1436   */\n      0x00\n        /* \"#utility.yul\":1427:1430   */\n      dup6\n        /* \"#utility.yul\":1423:1437   */\n      add\n        /* \"#utility.yul\":1409:1421   */\n      dup3\n        /* \"#utility.yul\":1375:1438   */\n      tag_120\n      jump\t// in\n    tag_160:\n        /* \"#utility.yul\":1278:1448   */\n      pop\n        /* \"#utility.yul\":1531:1535   */\n      0x20\n        /* \"#utility.yul\":1524:1529   */\n      dup3\n        /* \"#utility.yul\":1520:1536   */\n      add\n        /* \"#utility.yul\":1514:1537   */\n      mload\n        /* \"#utility.yul\":1550:1613   */\n      tag_161\n        /* \"#utility.yul\":1607:1611   */\n      0x20\n        /* \"#utility.yul\":1602:1605   */\n      dup6\n        /* \"#utility.yul\":1598:1612   */\n      add\n        /* \"#utility.yul\":1584:1596   */\n      dup3\n        /* \"#utility.yul\":1550:1613   */\n      tag_122\n      jump\t// in\n    tag_161:\n        /* \"#utility.yul\":1458:1623   */\n      pop\n        /* \"#utility.yul\":1232:1630   */\n      pop\n        /* \"#utility.yul\":1132:1630   */\n      pop\n      pop\n      jump\t// out\n        /* \"#utility.yul\":1636:1903   */\n    tag_124:\n        /* \"#utility.yul\":1749:1759   */\n      0x00\n        /* \"#utility.yul\":1770:1860   */\n      tag_163\n        /* \"#utility.yul\":1856:1859   */\n      dup4\n        /* \"#utility.yul\":1848:1854   */\n      dup4\n        /* \"#utility.yul\":1770:1860   */\n      tag_123\n      jump\t// in\n    tag_163:\n        /* \"#utility.yul\":1892:1896   */\n      0x40\n        /* \"#utility.yul\":1887:1890   */\n      dup4\n        /* \"#utility.yul\":1883:1897   */\n      add\n        /* \"#utility.yul\":1869:1897   */\n      swap1\n      pop\n        /* \"#utility.yul\":1636:1903   */\n      swap3\n      swap2\n      pop\n      pop\n      jump\t// out\n        /* \"#utility.yul\":1909:2044   */\n    tag_125:\n        /* \"#utility.yul\":2001:2005   */\n      0x00\n        /* \"#utility.yul\":2033:2037   */\n      0x20\n        /* \"#utility.yul\":2028:2031   */\n      dup3\n        /* \"#utility.yul\":2024:2038   */\n      add\n        /* \"#utility.yul\":2016:2038   */\n      swap1\n      pop\n        /* \"#utility.yul\":1909:2044   */\n      swap2\n      swap1\n      pop\n      jump\t// out\n        /* \"#utility.yul\":2120:3028   */\n    tag_126:\n        /* \"#utility.yul\":2283:2286   */\n      0x00\n        /* \"#utility.yul\":2312:2388   */\n      tag_166\n        /* \"#utility.yul\":2382:2387   */\n      dup3\n        /* \"#utility.yul\":2312:2388   */\n      tag_115\n      jump\t// in\n    tag_166:\n        /* \"#utility.yul\":2404:2512   */\n      tag_167\n        /* \"#utility.yul\":2505:2511   */\n      dup2\n        /* \"#utility.yul\":2500:2503   */\n      dup6\n        /* \"#utility.yul\":2404:2512   */\n      tag_116\n      jump\t// in\n    tag_167:\n        /* \"#utility.yul\":2397:2512   */\n      swap4\n      pop\n        /* \"#utility.yul\":2536:2614   */\n      tag_168\n        /* \"#utility.yul\":2608:2613   */\n      dup4\n        /* \"#utility.yul\":2536:2614   */\n      tag_117\n      jump\t// in\n    tag_168:\n        /* \"#utility.yul\":2637:2644   */\n      dup1\n        /* \"#utility.yul\":2668:2669   */\n      0x00\n        /* \"#utility.yul\":2653:3003   */\n    tag_169:\n        /* \"#utility.yul\":2678:2684   */\n      dup4\n        /* \"#utility.yul\":2675:2676   */\n      dup2\n        /* \"#utility.yul\":2672:2685   */\n      lt\n        /* \"#utility.yul\":2653:3003   */\n      iszero\n      tag_171\n      jumpi\n        /* \"#utility.yul\":2754:2760   */\n      dup2\n        /* \"#utility.yul\":2748:2761   */\n      mload\n        /* \"#utility.yul\":2781:2888   */\n      tag_172\n        /* \"#utility.yul\":2884:2887   */\n      dup9\n        /* \"#utility.yul\":2869:2882   */\n      dup3\n        /* \"#utility.yul\":2781:2888   */\n      tag_124\n      jump\t// in\n    tag_172:\n        /* \"#utility.yul\":2774:2888   */\n      swap8\n      pop\n        /* \"#utility.yul\":2911:2993   */\n      tag_173\n        /* \"#utility.yul\":2986:2992   */\n      dup4\n        /* \"#utility.yul\":2911:2993   */\n      tag_125\n      jump\t// in\n    tag_173:\n        /* \"#utility.yul\":2901:2993   */\n      swap3\n      pop\n        /* \"#utility.yul\":2713:3003   */\n      pop\n        /* \"#utility.yul\":2700:2701   */\n      0x01\n        /* \"#utility.yul\":2697:2698   */\n      dup2\n        /* \"#utility.yul\":2693:2702   */\n      add\n        /* \"#utility.yul\":2688:2702   */\n      swap1\n      pop\n        /* \"#utility.yul\":2653:3003   */\n      jump(tag_169)\n    tag_171:\n        /* \"#utility.yul\":2657:2671   */\n      pop\n        /* \"#utility.yul\":3019:3022   */\n      dup6\n        /* \"#utility.yul\":3012:3022   */\n      swap4\n      pop\n        /* \"#utility.yul\":2288:3028   */\n      pop\n      pop\n      pop\n        /* \"#utility.yul\":2120:3028   */\n      swap3\n      swap2\n      pop\n      pop\n      jump\t// out\n        /* \"#utility.yul\":3034:3495   */\n    tag_14:\n        /* \"#utility.yul\":3221:3225   */\n      0x00\n        /* \"#utility.yul\":3259:3261   */\n      0x20\n        /* \"#utility.yul\":3248:3257   */\n      dup3\n        /* \"#utility.yul\":3244:3262   */\n      add\n        /* \"#utility.yul\":3236:3262   */\n      swap1\n      pop\n        /* \"#utility.yul\":3308:3317   */\n      dup2\n        /* \"#utility.yul\":3302:3306   */\n      dup2\n        /* \"#utility.yul\":3298:3318   */\n      sub\n        /* \"#utility.yul\":3294:3295   */\n      0x00\n        /* \"#utility.yul\":3283:3292   */\n      dup4\n        /* \"#utility.yul\":3279:3296   */\n      add\n        /* \"#utility.yul\":3272:3319   */\n      mstore\n        /* \"#utility.yul\":3336:3488   */\n      tag_175\n        /* \"#utility.yul\":3483:3487   */\n      dup2\n        /* \"#utility.yul\":3474:3480   */\n      dup5\n        /* \"#utility.yul\":3336:3488   */\n      tag_126\n      jump\t// in\n    tag_175:\n        /* \"#utility.yul\":3328:3488   */\n      swap1\n      pop\n        /* \"#utility.yul\":3034:3495   */\n      swap3\n      swap2\n      pop\n      pop\n      jump\t// out\n        /* \"#utility.yul\":3501:3619   */\n    tag_127:\n        /* \"#utility.yul\":3588:3612   */\n      tag_177\n        /* \"#utility.yul\":3606:3611   */\n      dup2\n        /* \"#utility.yul\":3588:3612   */\n      tag_119\n      jump\t// in\n    tag_177:\n        /* \"#utility.yul\":3583:3586   */\n      dup3\n        /* \"#utility.yul\":3576:3613   */\n      mstore\n        /* \"#utility.yul\":3501:3619   */\n      pop\n      pop\n      jump\t// out\n        /* \"#utility.yul\":3625:3743   */\n    tag_128:\n        /* \"#utility.yul\":3712:3736   */\n      tag_179\n        /* \"#utility.yul\":3730:3735   */\n      dup2\n        /* \"#utility.yul\":3712:3736   */\n      tag_121\n      jump\t// in\n    tag_179:\n        /* \"#utility.yul\":3707:3710   */\n      dup3\n        /* \"#utility.yul\":3700:3737   */\n      mstore\n        /* \"#utility.yul\":3625:3743   */\n      pop\n      pop\n      jump\t// out\n        /* \"#utility.yul\":3749:4081   */\n    tag_27:\n        /* \"#utility.yul\":3870:3874   */\n      0x00\n        /* \"#utility.yul\":3908:3910   */\n      0x40\n        /* \"#utility.yul\":3897:3906   */\n      dup3\n        /* \"#utility.yul\":3893:3911   */\n      add\n        /* \"#utility.yul\":3885:3911   */\n      swap1\n      pop\n        /* \"#utility.yul\":3921:3992   */\n      tag_181\n        /* \"#utility.yul\":3989:3990   */\n      0x00\n        /* \"#utility.yul\":3978:3987   */\n      dup4\n        /* \"#utility.yul\":3974:3991   */\n      add\n        /* \"#utility.yul\":3965:3971   */\n      dup6\n        /* \"#utility.yul\":3921:3992   */\n      tag_127\n      jump\t// in\n    tag_181:\n        /* \"#utility.yul\":4002:4074   */\n      tag_182\n        /* \"#utility.yul\":4070:4072   */\n      0x20\n        /* \"#utility.yul\":4059:4068   */\n      dup4\n        /* \"#utility.yul\":4055:4073   */\n      add\n        /* \"#utility.yul\":4046:4052   */\n      dup5\n        /* \"#utility.yul\":4002:4074   */\n      tag_128\n      jump\t// in\n    tag_182:\n        /* \"#utility.yul\":3749:4081   */\n      swap4\n      swap3\n      pop\n      pop\n      pop\n      jump\t// out\n        /* \"#utility.yul\":4168:4285   */\n    tag_130:\n        /* \"#utility.yul\":4277:4278   */\n      0x00\n        /* \"#utility.yul\":4274:4275   */\n      dup1\n        /* \"#utility.yul\":4267:4279   */\n      revert\n        /* \"#utility.yul\":4414:4536   */\n    tag_132:\n        /* \"#utility.yul\":4487:4511   */\n      tag_187\n        /* \"#utility.yul\":4505:4510   */\n      dup2\n        /* \"#utility.yul\":4487:4511   */\n      tag_119\n      jump\t// in\n    tag_187:\n        /* \"#utility.yul\":4480:4485   */\n      dup2\n        /* \"#utility.yul\":4477:4512   */\n      eq\n        /* \"#utility.yul\":4467:4530   */\n      tag_188\n      jumpi\n        /* \"#utility.yul\":4526:4527   */\n      0x00\n        /* \"#utility.yul\":4523:4524   */\n      dup1\n        /* \"#utility.yul\":4516:4528   */\n      revert\n        /* \"#utility.yul\":4467:4530   */\n    tag_188:\n        /* \"#utility.yul\":4414:4536   */\n      pop\n      jump\t// out\n        /* \"#utility.yul\":4542:4681   */\n    tag_133:\n        /* \"#utility.yul\":4588:4593   */\n      0x00\n        /* \"#utility.yul\":4626:4632   */\n      dup2\n        /* \"#utility.yul\":4613:4633   */\n      calldataload\n        /* \"#utility.yul\":4604:4633   */\n      swap1\n      pop\n        /* \"#utility.yul\":4642:4675   */\n      tag_190\n        /* \"#utility.yul\":4669:4674   */\n      dup2\n        /* \"#utility.yul\":4642:4675   */\n      tag_132\n      jump\t// in\n    tag_190:\n        /* \"#utility.yul\":4542:4681   */\n      swap3\n      swap2\n      pop\n      pop\n      jump\t// out\n        /* \"#utility.yul\":4687:5016   */\n    tag_31:\n        /* \"#utility.yul\":4746:4752   */\n      0x00\n        /* \"#utility.yul\":4795:4797   */\n      0x20\n        /* \"#utility.yul\":4783:4792   */\n      dup3\n        /* \"#utility.yul\":4774:4781   */\n      dup5\n        /* \"#utility.yul\":4770:4793   */\n      sub\n        /* \"#utility.yul\":4766:4798   */\n      slt\n        /* \"#utility.yul\":4763:4882   */\n      iszero\n      tag_192\n      jumpi\n        /* \"#utility.yul\":4801:4880   */\n      tag_193\n      tag_130\n      jump\t// in\n    tag_193:\n        /* \"#utility.yul\":4763:4882   */\n    tag_192:\n        /* \"#utility.yul\":4921:4922   */\n      0x00\n        /* \"#utility.yul\":4946:4999   */\n      tag_194\n        /* \"#utility.yul\":4991:4998   */\n      dup5\n        /* \"#utility.yul\":4982:4988   */\n      dup3\n        /* \"#utility.yul\":4971:4980   */\n      dup6\n        /* \"#utility.yul\":4967:4989   */\n      add\n        /* \"#utility.yul\":4946:4999   */\n      tag_133\n      jump\t// in\n    tag_194:\n        /* \"#utility.yul\":4936:4999   */\n      swap2\n      pop\n        /* \"#utility.yul\":4892:5009   */\n      pop\n        /* \"#utility.yul\":4687:5016   */\n      swap3\n      swap2\n      pop\n      pop\n      jump\t// out\n        /* \"#utility.yul\":5022:5464   */\n    tag_34:\n        /* \"#utility.yul\":5171:5175   */\n      0x00\n        /* \"#utility.yul\":5209:5211   */\n      0x60\n        /* \"#utility.yul\":5198:5207   */\n      dup3\n        /* \"#utility.yul\":5194:5212   */\n      add\n        /* \"#utility.yul\":5186:5212   */\n      swap1\n      pop\n        /* \"#utility.yul\":5222:5293   */\n      tag_196\n        /* \"#utility.yul\":5290:5291   */\n      0x00\n        /* \"#utility.yul\":5279:5288   */\n      dup4\n        /* \"#utility.yul\":5275:5292   */\n      add\n        /* \"#utility.yul\":5266:5272   */\n      dup7\n        /* \"#utility.yul\":5222:5293   */\n      tag_127\n      jump\t// in\n    tag_196:\n        /* \"#utility.yul\":5303:5375   */\n      tag_197\n        /* \"#utility.yul\":5371:5373   */\n      0x20\n        /* \"#utility.yul\":5360:5369   */\n      dup4\n        /* \"#utility.yul\":5356:5374   */\n      add\n        /* \"#utility.yul\":5347:5353   */\n      dup6\n        /* \"#utility.yul\":5303:5375   */\n      tag_128\n      jump\t// in\n    tag_197:\n        /* \"#utility.yul\":5385:5457   */\n      tag_198\n        /* \"#utility.yul\":5453:5455   */\n      0x40\n        /* \"#utility.yul\":5442:5451   */\n      dup4\n        /* \"#utility.yul\":5438:5456   */\n      add\n        /* \"#utility.yul\":5429:5435   */\n      dup5\n        /* \"#utility.yul\":5385:5457   */\n      tag_128\n      jump\t// in\n    tag_198:\n        /* \"#utility.yul\":5022:5464   */\n      swap5\n      swap4\n      pop\n      pop\n      pop\n      pop\n      jump\t// out\n        /* \"#utility.yul\":5470:5650   */\n    tag_134:\n        /* \"#utility.yul\":5518:5595   */\n      0x4e487b7100000000000000000000000000000000000000000000000000000000\n        /* \"#utility.yul\":5515:5516   */\n      0x00\n        /* \"#utility.yul\":5508:5596   */\n      mstore\n        /* \"#utility.yul\":5615:5619   */\n      0x11\n        /* \"#utility.yul\":5612:5613   */\n      0x04\n        /* \"#utility.yul\":5605:5620   */\n      mstore\n        /* \"#utility.yul\":5639:5643   */\n      0x24\n        /* \"#utility.yul\":5636:5637   */\n      0x00\n        /* \"#utility.yul\":5629:5644   */\n      revert\n        /* \"#utility.yul\":5656:5847   */\n    tag_44:\n        /* \"#utility.yul\":5696:5699   */\n      0x00\n        /* \"#utility.yul\":5715:5735   */\n      tag_201\n        /* \"#utility.yul\":5733:5734   */\n      dup3\n        /* \"#utility.yul\":5715:5735   */\n      tag_121\n      jump\t// in\n    tag_201:\n        /* \"#utility.yul\":5710:5735   */\n      swap2\n      pop\n        /* \"#utility.yul\":5749:5769   */\n      tag_202\n        /* \"#utility.yul\":5767:5768   */\n      dup4\n        /* \"#utility.yul\":5749:5769   */\n      tag_121\n      jump\t// in\n    tag_202:\n        /* \"#utility.yul\":5744:5769   */\n      swap3\n      pop\n        /* \"#utility.yul\":5792:5793   */\n      dup3\n        /* \"#utility.yul\":5789:5790   */\n      dup3\n        /* \"#utility.yul\":5785:5794   */\n      add\n        /* \"#utility.yul\":5778:5794   */\n      swap1\n      pop\n        /* \"#utility.yul\":5813:5816   */\n      dup1\n        /* \"#utility.yul\":5810:5811   */\n      dup3\n        /* \"#utility.yul\":5807:5817   */\n      gt\n        /* \"#utility.yul\":5804:5840   */\n      iszero\n      tag_203\n      jumpi\n        /* \"#utility.yul\":5820:5838   */\n      tag_204\n      tag_134\n      jump\t// in\n    tag_204:\n        /* \"#utility.yul\":5804:5840   */\n    tag_203:\n        /* \"#utility.yul\":5656:5847   */\n      swap3\n      swap2\n      pop\n      pop\n      jump\t// out\n        /* \"#utility.yul\":5853:6022   */\n    tag_135:\n        /* \"#utility.yul\":5937:5948   */\n      0x00\n        /* \"#utility.yul\":5971:5977   */\n      dup3\n        /* \"#utility.yul\":5966:5969   */\n      dup3\n        /* \"#utility.yul\":5959:5978   */\n      mstore\n        /* \"#utility.yul\":6011:6015   */\n      0x20\n        /* \"#utility.yul\":6006:6009   */\n      dup3\n        /* \"#utility.yul\":6002:6016   */\n      add\n        /* \"#utility.yul\":5987:6016   */\n      swap1\n      pop\n        /* \"#utility.yul\":5853:6022   */\n      swap3\n      swap2\n      pop\n      pop\n      jump\t// out\n        /* \"#utility.yul\":6028:6196   */\n    tag_136:\n        /* \"#utility.yul\":6168:6188   */\n      0x4c612073756261737461207465726d696e6f0000000000000000000000000000\n        /* \"#utility.yul\":6164:6165   */\n      0x00\n        /* \"#utility.yul\":6156:6162   */\n      dup3\n        /* \"#utility.yul\":6152:6166   */\n      add\n        /* \"#utility.yul\":6145:6189   */\n      mstore\n        /* \"#utility.yul\":6028:6196   */\n      pop\n      jump\t// out\n        /* \"#utility.yul\":6202:6568   */\n    tag_137:\n        /* \"#utility.yul\":6344:6347   */\n      0x00\n        /* \"#utility.yul\":6365:6432   */\n      tag_208\n        /* \"#utility.yul\":6429:6431   */\n      0x12\n        /* \"#utility.yul\":6424:6427   */\n      dup4\n        /* \"#utility.yul\":6365:6432   */\n      tag_135\n      jump\t// in\n    tag_208:\n        /* \"#utility.yul\":6358:6432   */\n      swap2\n      pop\n        /* \"#utility.yul\":6441:6534   */\n      tag_209\n        /* \"#utility.yul\":6530:6533   */\n      dup3\n        /* \"#utility.yul\":6441:6534   */\n      tag_136\n      jump\t// in\n    tag_209:\n        /* \"#utility.yul\":6559:6561   */\n      0x20\n        /* \"#utility.yul\":6554:6557   */\n      dup3\n        /* \"#utility.yul\":6550:6562   */\n      add\n        /* \"#utility.yul\":6543:6562   */\n      swap1\n      pop\n        /* \"#utility.yul\":6202:6568   */\n      swap2\n      swap1\n      pop\n      jump\t// out\n        /* \"#utility.yul\":6574:6993   */\n    tag_47:\n        /* \"#utility.yul\":6740:6744   */\n      0x00\n        /* \"#utility.yul\":6778:6780   */\n      0x20\n        /* \"#utility.yul\":6767:6776   */\n      dup3\n        /* \"#utility.yul\":6763:6781   */\n      add\n        /* \"#utility.yul\":6755:6781   */\n      swap1\n      pop\n        /* \"#utility.yul\":6827:6836   */\n      dup2\n        /* \"#utility.yul\":6821:6825   */\n      dup2\n        /* \"#utility.yul\":6817:6837   */\n      sub\n        /* \"#utility.yul\":6813:6814   */\n      0x00\n        /* \"#utility.yul\":6802:6811   */\n      dup4\n        /* \"#utility.yul\":6798:6815   */\n      add\n        /* \"#utility.yul\":6791:6838   */\n      mstore\n        /* \"#utility.yul\":6855:6986   */\n      tag_211\n        /* \"#utility.yul\":6981:6985   */\n      dup2\n        /* \"#utility.yul\":6855:6986   */\n      tag_137\n      jump\t// in\n    tag_211:\n        /* \"#utility.yul\":6847:6986   */\n      swap1\n      pop\n        /* \"#utility.yul\":6574:6993   */\n      swap2\n      swap1\n      pop\n      jump\t// out\n        /* \"#utility.yul\":6999:7409   */\n    tag_50:\n        /* \"#utility.yul\":7039:7046   */\n      0x00\n        /* \"#utility.yul\":7062:7082   */\n      tag_213\n        /* \"#utility.yul\":7080:7081   */\n      dup3\n        /* \"#utility.yul\":7062:7082   */\n      tag_121\n      jump\t// in\n    tag_213:\n        /* \"#utility.yul\":7057:7082   */\n      swap2\n      pop\n        /* \"#utility.yul\":7096:7116   */\n      tag_214\n        /* \"#utility.yul\":7114:7115   */\n      dup4\n        /* \"#utility.yul\":7096:7116   */\n      tag_121\n      jump\t// in\n    tag_214:\n        /* \"#utility.yul\":7091:7116   */\n      swap3\n      pop\n        /* \"#utility.yul\":7151:7152   */\n      dup3\n        /* \"#utility.yul\":7148:7149   */\n      dup3\n        /* \"#utility.yul\":7144:7153   */\n      mul\n        /* \"#utility.yul\":7173:7203   */\n      tag_215\n        /* \"#utility.yul\":7191:7202   */\n      dup2\n        /* \"#utility.yul\":7173:7203   */\n      tag_121\n      jump\t// in\n    tag_215:\n        /* \"#utility.yul\":7162:7203   */\n      swap2\n      pop\n        /* \"#utility.yul\":7352:7353   */\n      dup3\n        /* \"#utility.yul\":7343:7350   */\n      dup3\n        /* \"#utility.yul\":7339:7354   */\n      div\n        /* \"#utility.yul\":7336:7337   */\n      dup5\n        /* \"#utility.yul\":7333:7355   */\n      eq\n        /* \"#utility.yul\":7313:7314   */\n      dup4\n        /* \"#utility.yul\":7306:7315   */\n      iszero\n        /* \"#utility.yul\":7286:7369   */\n      or\n        /* \"#utility.yul\":7263:7402   */\n      tag_216\n      jumpi\n        /* \"#utility.yul\":7382:7400   */\n      tag_217\n      tag_134\n      jump\t// in\n    tag_217:\n        /* \"#utility.yul\":7263:7402   */\n    tag_216:\n        /* \"#utility.yul\":7047:7409   */\n      pop\n        /* \"#utility.yul\":6999:7409   */\n      swap3\n      swap2\n      pop\n      pop\n      jump\t// out\n        /* \"#utility.yul\":7415:7595   */\n    tag_138:\n        /* \"#utility.yul\":7463:7540   */\n      0x4e487b7100000000000000000000000000000000000000000000000000000000\n        /* \"#utility.yul\":7460:7461   */\n      0x00\n        /* \"#utility.yul\":7453:7541   */\n      mstore\n        /* \"#utility.yul\":7560:7564   */\n      0x12\n        /* \"#utility.yul\":7557:7558   */\n      0x04\n        /* \"#utility.yul\":7550:7565   */\n      mstore\n        /* \"#utility.yul\":7584:7588   */\n      0x24\n        /* \"#utility.yul\":7581:7582   */\n      0x00\n        /* \"#utility.yul\":7574:7589   */\n      revert\n        /* \"#utility.yul\":7601:7786   */\n    tag_52:\n        /* \"#utility.yul\":7641:7642   */\n      0x00\n        /* \"#utility.yul\":7658:7678   */\n      tag_220\n        /* \"#utility.yul\":7676:7677   */\n      dup3\n        /* \"#utility.yul\":7658:7678   */\n      tag_121\n      jump\t// in\n    tag_220:\n        /* \"#utility.yul\":7653:7678   */\n      swap2\n      pop\n        /* \"#utility.yul\":7692:7712   */\n      tag_221\n        /* \"#utility.yul\":7710:7711   */\n      dup4\n        /* \"#utility.yul\":7692:7712   */\n      tag_121\n      jump\t// in\n    tag_221:\n        /* \"#utility.yul\":7687:7712   */\n      swap3\n      pop\n        /* \"#utility.yul\":7731:7732   */\n      dup3\n        /* \"#utility.yul\":7721:7756   */\n      tag_222\n      jumpi\n        /* \"#utility.yul\":7736:7754   */\n      tag_223\n      tag_138\n      jump\t// in\n    tag_223:\n        /* \"#utility.yul\":7721:7756   */\n    tag_222:\n        /* \"#utility.yul\":7778:7779   */\n      dup3\n        /* \"#utility.yul\":7775:7776   */\n      dup3\n        /* \"#utility.yul\":7771:7780   */\n      div\n        /* \"#utility.yul\":7766:7780   */\n      swap1\n      pop\n        /* \"#utility.yul\":7601:7786   */\n      swap3\n      swap2\n      pop\n      pop\n      jump\t// out\n        /* \"#utility.yul\":7792:7954   */\n    tag_139:\n        /* \"#utility.yul\":7932:7946   */\n      0x4e6f207375706572617374650000000000000000000000000000000000000000\n        /* \"#utility.yul\":7928:7929   */\n      0x00\n        /* \"#utility.yul\":7920:7926   */\n      dup3\n        /* \"#utility.yul\":7916:7930   */\n      add\n        /* \"#utility.yul\":7909:7947   */\n      mstore\n        /* \"#utility.yul\":7792:7954   */\n      pop\n      jump\t// out\n        /* \"#utility.yul\":7960:8326   */\n    tag_140:\n        /* \"#utility.yul\":8102:8105   */\n      0x00\n        /* \"#utility.yul\":8123:8190   */\n      tag_226\n        /* \"#utility.yul\":8187:8189   */\n      0x0c\n        /* \"#utility.yul\":8182:8185   */\n      dup4\n        /* \"#utility.yul\":8123:8190   */\n      tag_135\n      jump\t// in\n    tag_226:\n        /* \"#utility.yul\":8116:8190   */\n      swap2\n      pop\n        /* \"#utility.yul\":8199:8292   */\n      tag_227\n        /* \"#utility.yul\":8288:8291   */\n      dup3\n        /* \"#utility.yul\":8199:8292   */\n      tag_139\n      jump\t// in\n    tag_227:\n        /* \"#utility.yul\":8317:8319   */\n      0x20\n        /* \"#utility.yul\":8312:8315   */\n      dup3\n        /* \"#utility.yul\":8308:8320   */\n      add\n        /* \"#utility.yul\":8301:8320   */\n      swap1\n      pop\n        /* \"#utility.yul\":7960:8326   */\n      swap2\n      swap1\n      pop\n      jump\t// out\n        /* \"#utility.yul\":8332:8751   */\n    tag_56:\n        /* \"#utility.yul\":8498:8502   */\n      0x00\n        /* \"#utility.yul\":8536:8538   */\n      0x20\n        /* \"#utility.yul\":8525:8534   */\n      dup3\n        /* \"#utility.yul\":8521:8539   */\n      add\n        /* \"#utility.yul\":8513:8539   */\n      swap1\n      pop\n        /* \"#utility.yul\":8585:8594   */\n      dup2\n        /* \"#utility.yul\":8579:8583   */\n      dup2\n        /* \"#utility.yul\":8575:8595   */\n      sub\n        /* \"#utility.yul\":8571:8572   */\n      0x00\n        /* \"#utility.yul\":8560:8569   */\n      dup4\n        /* \"#utility.yul\":8556:8573   */\n      add\n        /* \"#utility.yul\":8549:8596   */\n      mstore\n        /* \"#utility.yul\":8613:8744   */\n      tag_229\n        /* \"#utility.yul\":8739:8743   */\n      dup2\n        /* \"#utility.yul\":8613:8744   */\n      tag_140\n      jump\t// in\n    tag_229:\n        /* \"#utility.yul\":8605:8744   */\n      swap1\n      pop\n        /* \"#utility.yul\":8332:8751   */\n      swap2\n      swap1\n      pop\n      jump\t// out\n        /* \"#utility.yul\":8757:8979   */\n    tag_63:\n        /* \"#utility.yul\":8850:8854   */\n      0x00\n        /* \"#utility.yul\":8888:8890   */\n      0x20\n        /* \"#utility.yul\":8877:8886   */\n      dup3\n        /* \"#utility.yul\":8873:8891   */\n      add\n        /* \"#utility.yul\":8865:8891   */\n      swap1\n      pop\n        /* \"#utility.yul\":8901:8972   */\n      tag_231\n        /* \"#utility.yul\":8969:8970   */\n      0x00\n        /* \"#utility.yul\":8958:8967   */\n      dup4\n        /* \"#utility.yul\":8954:8971   */\n      add\n        /* \"#utility.yul\":8945:8951   */\n      dup5\n        /* \"#utility.yul\":8901:8972   */\n      tag_128\n      jump\t// in\n    tag_231:\n        /* \"#utility.yul\":8757:8979   */\n      swap3\n      swap2\n      pop\n      pop\n      jump\t// out\n        /* \"#utility.yul\":8985:9150   */\n    tag_141:\n        /* \"#utility.yul\":9125:9142   */\n      0x4e6164612061206465766f6c7665720000000000000000000000000000000000\n        /* \"#utility.yul\":9121:9122   */\n      0x00\n        /* \"#utility.yul\":9113:9119   */\n      dup3\n        /* \"#utility.yul\":9109:9123   */\n      add\n        /* \"#utility.yul\":9102:9143   */\n      mstore\n        /* \"#utility.yul\":8985:9150   */\n      pop\n      jump\t// out\n        /* \"#utility.yul\":9156:9522   */\n    tag_142:\n        /* \"#utility.yul\":9298:9301   */\n      0x00\n        /* \"#utility.yul\":9319:9386   */\n      tag_234\n        /* \"#utility.yul\":9383:9385   */\n      0x0f\n        /* \"#utility.yul\":9378:9381   */\n      dup4\n        /* \"#utility.yul\":9319:9386   */\n      tag_135\n      jump\t// in\n    tag_234:\n        /* \"#utility.yul\":9312:9386   */\n      swap2\n      pop\n        /* \"#utility.yul\":9395:9488   */\n      tag_235\n        /* \"#utility.yul\":9484:9487   */\n      dup3\n        /* \"#utility.yul\":9395:9488   */\n      tag_141\n      jump\t// in\n    tag_235:\n        /* \"#utility.yul\":9513:9515   */\n      0x20\n        /* \"#utility.yul\":9508:9511   */\n      dup3\n        /* \"#utility.yul\":9504:9516   */\n      add\n        /* \"#utility.yul\":9497:9516   */\n      swap1\n      pop\n        /* \"#utility.yul\":9156:9522   */\n      swap2\n      swap1\n      pop\n      jump\t// out\n        /* \"#utility.yul\":9528:9947   */\n    tag_67:\n        /* \"#utility.yul\":9694:9698   */\n      0x00\n        /* \"#utility.yul\":9732:9734   */\n      0x20\n        /* \"#utility.yul\":9721:9730   */\n      dup3\n        /* \"#utility.yul\":9717:9735   */\n      add\n        /* \"#utility.yul\":9709:9735   */\n      swap1\n      pop\n        /* \"#utility.yul\":9781:9790   */\n      dup2\n        /* \"#utility.yul\":9775:9779   */\n      dup2\n        /* \"#utility.yul\":9771:9791   */\n      sub\n        /* \"#utility.yul\":9767:9768   */\n      0x00\n        /* \"#utility.yul\":9756:9765   */\n      dup4\n        /* \"#utility.yul\":9752:9769   */\n      add\n        /* \"#utility.yul\":9745:9792   */\n      mstore\n        /* \"#utility.yul\":9809:9940   */\n      tag_237\n        /* \"#utility.yul\":9935:9939   */\n      dup2\n        /* \"#utility.yul\":9809:9940   */\n      tag_142\n      jump\t// in\n    tag_237:\n        /* \"#utility.yul\":9801:9940   */\n      swap1\n      pop\n        /* \"#utility.yul\":9528:9947   */\n      swap2\n      swap1\n      pop\n      jump\t// out\n        /* \"#utility.yul\":9953:10147   */\n    tag_70:\n        /* \"#utility.yul\":9993:9997   */\n      0x00\n        /* \"#utility.yul\":10013:10033   */\n      tag_239\n        /* \"#utility.yul\":10031:10032   */\n      dup3\n        /* \"#utility.yul\":10013:10033   */\n      tag_121\n      jump\t// in\n    tag_239:\n        /* \"#utility.yul\":10008:10033   */\n      swap2\n      pop\n        /* \"#utility.yul\":10047:10067   */\n      tag_240\n        /* \"#utility.yul\":10065:10066   */\n      dup4\n        /* \"#utility.yul\":10047:10067   */\n      tag_121\n      jump\t// in\n    tag_240:\n        /* \"#utility.yul\":10042:10067   */\n      swap3\n      pop\n        /* \"#utility.yul\":10091:10092   */\n      dup3\n        /* \"#utility.yul\":10088:10089   */\n      dup3\n        /* \"#utility.yul\":10084:10093   */\n      sub\n        /* \"#utility.yul\":10076:10093   */\n      swap1\n      pop\n        /* \"#utility.yul\":10115:10116   */\n      dup2\n        /* \"#utility.yul\":10109:10113   */\n      dup2\n        /* \"#utility.yul\":10106:10117   */\n      gt\n        /* \"#utility.yul\":10103:10140   */\n      iszero\n      tag_241\n      jumpi\n        /* \"#utility.yul\":10120:10138   */\n      tag_242\n      tag_134\n      jump\t// in\n    tag_242:\n        /* \"#utility.yul\":10103:10140   */\n    tag_241:\n        /* \"#utility.yul\":9953:10147   */\n      swap3\n      swap2\n      pop\n      pop\n      jump\t// out\n        /* \"#utility.yul\":10153:10316   */\n    tag_143:\n        /* \"#utility.yul\":10293:10308   */\n      0x4e6f206175746f72697a61646f00000000000000000000000000000000000000\n        /* \"#utility.yul\":10289:10290   */\n      0x00\n        /* \"#utility.yul\":10281:10287   */\n      dup3\n        /* \"#utility.yul\":10277:10291   */\n      add\n        /* \"#utility.yul\":10270:10309   */\n      mstore\n        /* \"#utility.yul\":10153:10316   */\n      pop\n      jump\t// out\n        /* \"#utility.yul\":10322:10688   */\n    tag_144:\n        /* \"#utility.yul\":10464:10467   */\n      0x00\n        /* \"#utility.yul\":10485:10552   */\n      tag_245\n        /* \"#utility.yul\":10549:10551   */\n      0x0d\n        /* \"#utility.yul\":10544:10547   */\n      dup4\n        /* \"#utility.yul\":10485:10552   */\n      tag_135\n      jump\t// in\n    tag_245:\n        /* \"#utility.yul\":10478:10552   */\n      swap2\n      pop\n        /* \"#utility.yul\":10561:10654   */\n      tag_246\n        /* \"#utility.yul\":10650:10653   */\n      dup3\n        /* \"#utility.yul\":10561:10654   */\n      tag_143\n      jump\t// in\n    tag_246:\n        /* \"#utility.yul\":10679:10681   */\n      0x20\n        /* \"#utility.yul\":10674:10677   */\n      dup3\n        /* \"#utility.yul\":10670:10682   */\n      add\n        /* \"#utility.yul\":10663:10682   */\n      swap1\n      pop\n        /* \"#utility.yul\":10322:10688   */\n      swap2\n      swap1\n      pop\n      jump\t// out\n        /* \"#utility.yul\":10694:11113   */\n    tag_76:\n        /* \"#utility.yul\":10860:10864   */\n      0x00\n        /* \"#utility.yul\":10898:10900   */\n      0x20\n        /* \"#utility.yul\":10887:10896   */\n      dup3\n        /* \"#utility.yul\":10883:10901   */\n      add\n        /* \"#utility.yul\":10875:10901   */\n      swap1\n      pop\n        /* \"#utility.yul\":10947:10956   */\n      dup2\n        /* \"#utility.yul\":10941:10945   */\n      dup2\n        /* \"#utility.yul\":10937:10957   */\n      sub\n        /* \"#utility.yul\":10933:10934   */\n      0x00\n        /* \"#utility.yul\":10922:10931   */\n      dup4\n        /* \"#utility.yul\":10918:10935   */\n      add\n        /* \"#utility.yul\":10911:10958   */\n      mstore\n        /* \"#utility.yul\":10975:11106   */\n      tag_248\n        /* \"#utility.yul\":11101:11105   */\n      dup2\n        /* \"#utility.yul\":10975:11106   */\n      tag_144\n      jump\t// in\n    tag_248:\n        /* \"#utility.yul\":10967:11106   */\n      swap1\n      pop\n        /* \"#utility.yul\":10694:11113   */\n      swap2\n      swap1\n      pop\n      jump\t// out\n        /* \"#utility.yul\":11119:11290   */\n    tag_145:\n        /* \"#utility.yul\":11259:11282   */\n      0x4c612073756261737461206e6f207465726d696e6f0000000000000000000000\n        /* \"#utility.yul\":11255:11256   */\n      0x00\n        /* \"#utility.yul\":11247:11253   */\n      dup3\n        /* \"#utility.yul\":11243:11257   */\n      add\n        /* \"#utility.yul\":11236:11283   */\n      mstore\n        /* \"#utility.yul\":11119:11290   */\n      pop\n      jump\t// out\n        /* \"#utility.yul\":11296:11662   */\n    tag_146:\n        /* \"#utility.yul\":11438:11441   */\n      0x00\n        /* \"#utility.yul\":11459:11526   */\n      tag_251\n        /* \"#utility.yul\":11523:11525   */\n      0x15\n        /* \"#utility.yul\":11518:11521   */\n      dup4\n        /* \"#utility.yul\":11459:11526   */\n      tag_135\n      jump\t// in\n    tag_251:\n        /* \"#utility.yul\":11452:11526   */\n      swap2\n      pop\n        /* \"#utility.yul\":11535:11628   */\n      tag_252\n        /* \"#utility.yul\":11624:11627   */\n      dup3\n        /* \"#utility.yul\":11535:11628   */\n      tag_145\n      jump\t// in\n    tag_252:\n        /* \"#utility.yul\":11653:11655   */\n      0x20\n        /* \"#utility.yul\":11648:11651   */\n      dup3\n        /* \"#utility.yul\":11644:11656   */\n      add\n        /* \"#utility.yul\":11637:11656   */\n      swap1\n      pop\n        /* \"#utility.yul\":11296:11662   */\n      swap2\n      swap1\n      pop\n      jump\t// out\n        /* \"#utility.yul\":11668:12087   */\n    tag_81:\n        /* \"#utility.yul\":11834:11838   */\n      0x00\n        /* \"#utility.yul\":11872:11874   */\n      0x20\n        /* \"#utility.yul\":11861:11870   */\n      dup3\n        /* \"#utility.yul\":11857:11875   */\n      add\n        /* \"#utility.yul\":11849:11875   */\n      swap1\n      pop\n        /* \"#utility.yul\":11921:11930   */\n      dup2\n        /* \"#utility.yul\":11915:11919   */\n      dup2\n        /* \"#utility.yul\":11911:11931   */\n      sub\n        /* \"#utility.yul\":11907:11908   */\n      0x00\n        /* \"#utility.yul\":11896:11905   */\n      dup4\n        /* \"#utility.yul\":11892:11909   */\n      add\n        /* \"#utility.yul\":11885:11932   */\n      mstore\n        /* \"#utility.yul\":11949:12080   */\n      tag_254\n        /* \"#utility.yul\":12075:12079   */\n      dup2\n        /* \"#utility.yul\":11949:12080   */\n      tag_146\n      jump\t// in\n    tag_254:\n        /* \"#utility.yul\":11941:12080   */\n      swap1\n      pop\n        /* \"#utility.yul\":11668:12087   */\n      swap2\n      swap1\n      pop\n      jump\t// out\n        /* \"#utility.yul\":12093:12273   */\n    tag_98:\n        /* \"#utility.yul\":12141:12218   */\n      0x4e487b7100000000000000000000000000000000000000000000000000000000\n        /* \"#utility.yul\":12138:12139   */\n      0x00\n        /* \"#utility.yul\":12131:12219   */\n      mstore\n        /* \"#utility.yul\":12238:12242   */\n      0x32\n        /* \"#utility.yul\":12235:12236   */\n      0x04\n        /* \"#utility.yul\":12228:12243   */\n      mstore\n        /* \"#utility.yul\":12262:12266   */\n      0x24\n        /* \"#utility.yul\":12259:12260   */\n      0x00\n        /* \"#utility.yul\":12252:12267   */\n      revert\n\n    auxdata: 0xa2646970667358221220567a60a264f4932a3e1f197c441e29f38c4a1ab3e2c19398a58f2dd7d4205bfb64736f6c634300081a0033\n}\n",
				"bytecode": {
					"linkReferences": {},
					"object": "6080604052348015600e575f80fd5b503360035f6101000a81548173ffffffffffffffffffffffffffffffffffffffff021916908373ffffffffffffffffffffffffffffffffffffffff160217905550425f8190555061113d806100625f395ff3fe60806040526004361061006f575f3560e01c80633ccfd60b1161004d5780633ccfd60b146100bd5780638e7ea5b2146100d3578063e3d670d7146100fe578063f0392a881461013c5761006f565b806314d2687c146100735780631998aeef1461009d5780631ce2bcf5146100a7575b5f80fd5b34801561007e575f80fd5b50610087610152565b6040516100949190610c85565b60405180910390f35b6100a561020c565b005b3480156100b2575f80fd5b506100bb610552565b005b3480156100c8575f80fd5b506100d1610681565b005b3480156100de575f80fd5b506100e76107a6565b6040516100f5929190610cc3565b60405180910390f35b348015610109575f80fd5b50610124600480360381019061011f9190610d18565b6107d5565b60405161013393929190610d43565b60405180910390f35b348015610147575f80fd5b5061015061081a565b005b60606004805480602002602001604051908101604052809291908181526020015f905b82821015610203578382905f5260205f2090600202016040518060400160405290815f82015f9054906101000a900473ffffffffffffffffffffffffffffffffffffffff1673ffffffffffffffffffffffffffffffffffffffff1673ffffffffffffffffffffffffffffffffffffffff16815260200160018201548152505081526020019060010190610175565b50505050905090565b6102585f5461021b9190610da5565b421061025c576040517f08c379a000000000000000000000000000000000000000000000000000000000815260040161025390610e32565b60405180910390fd5b6064600560015461026d9190610e50565b6102779190610ebe565b6001546102849190610da5565b34116102c5576040517f08c379a00000000000000000000000000000000000000000000000000000000081526004016102bc90610f38565b60405180910390fd5b5f3390505f349050600460405180604001604052808473ffffffffffffffffffffffffffffffffffffffff16815260200183815250908060018154018082558091505060019003905f5260205f2090600202015f909190919091505f820151815f015f6101000a81548173ffffffffffffffffffffffffffffffffffffffff021916908373ffffffffffffffffffffffffffffffffffffffff1602179055506020820151816001015550505f60055f8473ffffffffffffffffffffffffffffffffffffffff1673ffffffffffffffffffffffffffffffffffffffff1681526020019081526020015f20600201540361041857600682908060018154018082558091505060019003905f5260205f20015f9091909190916101000a81548173ffffffffffffffffffffffffffffffffffffffff021916908373ffffffffffffffffffffffffffffffffffffffff1602179055505b8060055f8473ffffffffffffffffffffffffffffffffffffffff1673ffffffffffffffffffffffffffffffffffffffff1681526020019081526020015f206002015f8282546104679190610da5565b925050819055508060055f8473ffffffffffffffffffffffffffffffffffffffff1673ffffffffffffffffffffffffffffffffffffffff1681526020019081526020015f2060010181905550425f81905550806001819055508160025f6101000a81548173ffffffffffffffffffffffffffffffffffffffff021916908373ffffffffffffffffffffffffffffffffffffffff1602179055508173ffffffffffffffffffffffffffffffffffffffff167ff0aeee3b2529b7f726e417ef1625affef3c5af580cfa8fc6f93109b7c43bcbbb826040516105469190610f56565b60405180910390a25050565b60015460055f3373ffffffffffffffffffffffffffffffffffffffff1673ffffffffffffffffffffffffffffffffffffffff1681526020019081526020015f2060020154116105d6576040517f08c379a00000000000000000000000000000000000000000000000000000000081526004016105cd90610fb9565b60405180910390fd5b5f3390505f60055f8373ffffffffffffffffffffffffffffffffffffffff1673ffffffffffffffffffffffffffffffffffffffff1681526020019081526020015f206002015490505f60055f8473ffffffffffffffffffffffffffffffffffffffff1673ffffffffffffffffffffffffffffffffffffffff1681526020019081526020015f206001015490505f818361066f9190610fd7565b905061067b8482610a8e565b50505050565b60035f9054906101000a900473ffffffffffffffffffffffffffffffffffffffff1673ffffffffffffffffffffffffffffffffffffffff163373ffffffffffffffffffffffffffffffffffffffff1614610710576040517f08c379a000000000000000000000000000000000000000000000000000000000815260040161070790611054565b60405180910390fd5b6102585f5461071f9190610da5565b4211610760576040517f08c379a0000000000000000000000000000000000000000000000000000000008152600401610757906110bc565b60405180910390fd5b3373ffffffffffffffffffffffffffffffffffffffff166108fc4790811502906040515f60405180830381858888f193505050501580156107a3573d5f803e3d5ffd5b50565b5f8060025f9054906101000a900473ffffffffffffffffffffffffffffffffffffffff16600154915091509091565b6005602052805f5260405f205f91509050805f015f9054906101000a900473ffffffffffffffffffffffffffffffffffffffff16908060010154908060020154905083565b60035f9054906101000a900473ffffffffffffffffffffffffffffffffffffffff1673ffffffffffffffffffffffffffffffffffffffff163373ffffffffffffffffffffffffffffffffffffffff16146108a9576040517f08c379a00000000000000000000000000000000000000000000000000000000081526004016108a090611054565b60405180910390fd5b6102585f546108b89190610da5565b42116108f9576040517f08c379a00000000000000000000000000000000000000000000000000000000081526004016108f0906110bc565b60405180910390fd5b61092660025f9054906101000a900473ffffffffffffffffffffffffffffffffffffffff16600154610a8e565b5f60068054905090505f5b81811015610a8a575f60055f60068481548110610951576109506110da565b5b905f5260205f20015f9054906101000a900473ffffffffffffffffffffffffffffffffffffffff1673ffffffffffffffffffffffffffffffffffffffff1673ffffffffffffffffffffffffffffffffffffffff1681526020019081526020015f20600201541115610a7d57610a7c600682815481106109d3576109d26110da565b5b905f5260205f20015f9054906101000a900473ffffffffffffffffffffffffffffffffffffffff1660055f60068581548110610a1257610a116110da565b5b905f5260205f20015f9054906101000a900473ffffffffffffffffffffffffffffffffffffffff1673ffffffffffffffffffffffffffffffffffffffff1673ffffffffffffffffffffffffffffffffffffffff1681526020019081526020015f2060020154610a8e565b5b8080600101915050610931565b5050565b5f6064600283610a9e9190610e50565b610aa89190610ebe565b82610ab39190610fd7565b90505f8390508073ffffffffffffffffffffffffffffffffffffffff166108fc8390811502906040515f60405180830381858888f19350505050158015610afc573d5f803e3d5ffd5b508260055f8673ffffffffffffffffffffffffffffffffffffffff1673ffffffffffffffffffffffffffffffffffffffff1681526020019081526020015f206002015f828254610b4c9190610fd7565b9250508190555050505050565b5f81519050919050565b5f82825260208201905092915050565b5f819050602082019050919050565b5f73ffffffffffffffffffffffffffffffffffffffff82169050919050565b5f610bab82610b82565b9050919050565b610bbb81610ba1565b82525050565b5f819050919050565b610bd381610bc1565b82525050565b604082015f820151610bed5f850182610bb2565b506020820151610c006020850182610bca565b50505050565b5f610c118383610bd9565b60408301905092915050565b5f602082019050919050565b5f610c3382610b59565b610c3d8185610b63565b9350610c4883610b73565b805f5b83811015610c78578151610c5f8882610c06565b9750610c6a83610c1d565b925050600181019050610c4b565b5085935050505092915050565b5f6020820190508181035f830152610c9d8184610c29565b905092915050565b610cae81610ba1565b82525050565b610cbd81610bc1565b82525050565b5f604082019050610cd65f830185610ca5565b610ce36020830184610cb4565b9392505050565b5f80fd5b610cf781610ba1565b8114610d01575f80fd5b50565b5f81359050610d1281610cee565b92915050565b5f60208284031215610d2d57610d2c610cea565b5b5f610d3a84828501610d04565b91505092915050565b5f606082019050610d565f830186610ca5565b610d636020830185610cb4565b610d706040830184610cb4565b949350505050565b7f4e487b71000000000000000000000000000000000000000000000000000000005f52601160045260245ffd5b5f610daf82610bc1565b9150610dba83610bc1565b9250828201905080821115610dd257610dd1610d78565b5b92915050565b5f82825260208201905092915050565b7f4c612073756261737461207465726d696e6f00000000000000000000000000005f82015250565b5f610e1c601283610dd8565b9150610e2782610de8565b602082019050919050565b5f6020820190508181035f830152610e4981610e10565b9050919050565b5f610e5a82610bc1565b9150610e6583610bc1565b9250828202610e7381610bc1565b91508282048414831517610e8a57610e89610d78565b5b5092915050565b7f4e487b71000000000000000000000000000000000000000000000000000000005f52601260045260245ffd5b5f610ec882610bc1565b9150610ed383610bc1565b925082610ee357610ee2610e91565b5b828204905092915050565b7f4e6f2073757065726173746500000000000000000000000000000000000000005f82015250565b5f610f22600c83610dd8565b9150610f2d82610eee565b602082019050919050565b5f6020820190508181035f830152610f4f81610f16565b9050919050565b5f602082019050610f695f830184610cb4565b92915050565b7f4e6164612061206465766f6c76657200000000000000000000000000000000005f82015250565b5f610fa3600f83610dd8565b9150610fae82610f6f565b602082019050919050565b5f6020820190508181035f830152610fd081610f97565b9050919050565b5f610fe182610bc1565b9150610fec83610bc1565b925082820390508181111561100457611003610d78565b5b92915050565b7f4e6f206175746f72697a61646f000000000000000000000000000000000000005f82015250565b5f61103e600d83610dd8565b91506110498261100a565b602082019050919050565b5f6020820190508181035f83015261106b81611032565b9050919050565b7f4c612073756261737461206e6f207465726d696e6f00000000000000000000005f82015250565b5f6110a6601583610dd8565b91506110b182611072565b602082019050919050565b5f6020820190508181035f8301526110d38161109a565b9050919050565b7f4e487b71000000000000000000000000000000000000000000000000000000005f52603260045260245ffdfea2646970667358221220567a60a264f4932a3e1f197c441e29f38c4a1ab3e2c19398a58f2dd7d4205bfb64736f6c634300081a0033",
					"opcodes": "PUSH1 0x80 PUSH1 0x40 MSTORE CALLVALUE DUP1 ISZERO PUSH1 0xE JUMPI PUSH0 DUP1 REVERT JUMPDEST POP CALLER PUSH1 0x3 PUSH0 PUSH2 0x100 EXP DUP2 SLOAD DUP2 PUSH20 0xFFFFFFFFFFFFFFFFFFFFFFFFFFFFFFFFFFFFFFFF MUL NOT AND SWAP1 DUP4 PUSH20 0xFFFFFFFFFFFFFFFFFFFFFFFFFFFFFFFFFFFFFFFF AND MUL OR SWAP1 SSTORE POP TIMESTAMP PUSH0 DUP2 SWAP1 SSTORE POP PUSH2 0x113D DUP1 PUSH2 0x62 PUSH0 CODECOPY PUSH0 RETURN INVALID PUSH1 0x80 PUSH1 0x40 MSTORE PUSH1 0x4 CALLDATASIZE LT PUSH2 0x6F JUMPI PUSH0 CALLDATALOAD PUSH1 0xE0 SHR DUP1 PUSH4 0x3CCFD60B GT PUSH2 0x4D JUMPI DUP1 PUSH4 0x3CCFD60B EQ PUSH2 0xBD JUMPI DUP1 PUSH4 0x8E7EA5B2 EQ PUSH2 0xD3 JUMPI DUP1 PUSH4 0xE3D670D7 EQ PUSH2 0xFE JUMPI DUP1 PUSH4 0xF0392A88 EQ PUSH2 0x13C JUMPI PUSH2 0x6F JUMP JUMPDEST DUP1 PUSH4 0x14D2687C EQ PUSH2 0x73 JUMPI DUP1 PUSH4 0x1998AEEF EQ PUSH2 0x9D JUMPI DUP1 PUSH4 0x1CE2BCF5 EQ PUSH2 0xA7 JUMPI JUMPDEST PUSH0 DUP1 REVERT JUMPDEST CALLVALUE DUP1 ISZERO PUSH2 0x7E JUMPI PUSH0 DUP1 REVERT JUMPDEST POP PUSH2 0x87 PUSH2 0x152 JUMP JUMPDEST PUSH1 0x40 MLOAD PUSH2 0x94 SWAP2 SWAP1 PUSH2 0xC85 JUMP JUMPDEST PUSH1 0x40 MLOAD DUP1 SWAP2 SUB SWAP1 RETURN JUMPDEST PUSH2 0xA5 PUSH2 0x20C JUMP JUMPDEST STOP JUMPDEST CALLVALUE DUP1 ISZERO PUSH2 0xB2 JUMPI PUSH0 DUP1 REVERT JUMPDEST POP PUSH2 0xBB PUSH2 0x552 JUMP JUMPDEST STOP JUMPDEST CALLVALUE DUP1 ISZERO PUSH2 0xC8 JUMPI PUSH0 DUP1 REVERT JUMPDEST POP PUSH2 0xD1 PUSH2 0x681 JUMP JUMPDEST STOP JUMPDEST CALLVALUE DUP1 ISZERO PUSH2 0xDE JUMPI PUSH0 DUP1 REVERT JUMPDEST POP PUSH2 0xE7 PUSH2 0x7A6 JUMP JUMPDEST PUSH1 0x40 MLOAD PUSH2 0xF5 SWAP3 SWAP2 SWAP1 PUSH2 0xCC3 JUMP JUMPDEST PUSH1 0x40 MLOAD DUP1 SWAP2 SUB SWAP1 RETURN JUMPDEST CALLVALUE DUP1 ISZERO PUSH2 0x109 JUMPI PUSH0 DUP1 REVERT JUMPDEST POP PUSH2 0x124 PUSH1 0x4 DUP1 CALLDATASIZE SUB DUP2 ADD SWAP1 PUSH2 0x11F SWAP2 SWAP1 PUSH2 0xD18 JUMP JUMPDEST PUSH2 0x7D5 JUMP JUMPDEST PUSH1 0x40 MLOAD PUSH2 0x133 SWAP4 SWAP3 SWAP2 SWAP1 PUSH2 0xD43 JUMP JUMPDEST PUSH1 0x40 MLOAD DUP1 SWAP2 SUB SWAP1 RETURN JUMPDEST CALLVALUE DUP1 ISZERO PUSH2 0x147 JUMPI PUSH0 DUP1 REVERT JUMPDEST POP PUSH2 0x150 PUSH2 0x81A JUMP JUMPDEST STOP JUMPDEST PUSH1 0x60 PUSH1 0x4 DUP1 SLOAD DUP1 PUSH1 0x20 MUL PUSH1 0x20 ADD PUSH1 0x40 MLOAD SWAP1 DUP2 ADD PUSH1 0x40 MSTORE DUP1 SWAP3 SWAP2 SWAP1 DUP2 DUP2 MSTORE PUSH1 0x20 ADD PUSH0 SWAP1 JUMPDEST DUP3 DUP3 LT ISZERO PUSH2 0x203 JUMPI DUP4 DUP3 SWAP1 PUSH0 MSTORE PUSH1 0x20 PUSH0 KECCAK256 SWAP1 PUSH1 0x2 MUL ADD PUSH1 0x40 MLOAD DUP1 PUSH1 0x40 ADD PUSH1 0x40 MSTORE SWAP1 DUP2 PUSH0 DUP3 ADD PUSH0 SWAP1 SLOAD SWAP1 PUSH2 0x100 EXP SWAP1 DIV PUSH20 0xFFFFFFFFFFFFFFFFFFFFFFFFFFFFFFFFFFFFFFFF AND PUSH20 0xFFFFFFFFFFFFFFFFFFFFFFFFFFFFFFFFFFFFFFFF AND PUSH20 0xFFFFFFFFFFFFFFFFFFFFFFFFFFFFFFFFFFFFFFFF AND DUP2 MSTORE PUSH1 0x20 ADD PUSH1 0x1 DUP3 ADD SLOAD DUP2 MSTORE POP POP DUP2 MSTORE PUSH1 0x20 ADD SWAP1 PUSH1 0x1 ADD SWAP1 PUSH2 0x175 JUMP JUMPDEST POP POP POP POP SWAP1 POP SWAP1 JUMP JUMPDEST PUSH2 0x258 PUSH0 SLOAD PUSH2 0x21B SWAP2 SWAP1 PUSH2 0xDA5 JUMP JUMPDEST TIMESTAMP LT PUSH2 0x25C JUMPI PUSH1 0x40 MLOAD PUSH32 0x8C379A000000000000000000000000000000000000000000000000000000000 DUP2 MSTORE PUSH1 0x4 ADD PUSH2 0x253 SWAP1 PUSH2 0xE32 JUMP JUMPDEST PUSH1 0x40 MLOAD DUP1 SWAP2 SUB SWAP1 REVERT JUMPDEST PUSH1 0x64 PUSH1 0x5 PUSH1 0x1 SLOAD PUSH2 0x26D SWAP2 SWAP1 PUSH2 0xE50 JUMP JUMPDEST PUSH2 0x277 SWAP2 SWAP1 PUSH2 0xEBE JUMP JUMPDEST PUSH1 0x1 SLOAD PUSH2 0x284 SWAP2 SWAP1 PUSH2 0xDA5 JUMP JUMPDEST CALLVALUE GT PUSH2 0x2C5 JUMPI PUSH1 0x40 MLOAD PUSH32 0x8C379A000000000000000000000000000000000000000000000000000000000 DUP2 MSTORE PUSH1 0x4 ADD PUSH2 0x2BC SWAP1 PUSH2 0xF38 JUMP JUMPDEST PUSH1 0x40 MLOAD DUP1 SWAP2 SUB SWAP1 REVERT JUMPDEST PUSH0 CALLER SWAP1 POP PUSH0 CALLVALUE SWAP1 POP PUSH1 0x4 PUSH1 0x40 MLOAD DUP1 PUSH1 0x40 ADD PUSH1 0x40 MSTORE DUP1 DUP5 PUSH20 0xFFFFFFFFFFFFFFFFFFFFFFFFFFFFFFFFFFFFFFFF AND DUP2 MSTORE PUSH1 0x20 ADD DUP4 DUP2 MSTORE POP SWAP1 DUP1 PUSH1 0x1 DUP2 SLOAD ADD DUP1 DUP3 SSTORE DUP1 SWAP2 POP POP PUSH1 0x1 SWAP1 SUB SWAP1 PUSH0 MSTORE PUSH1 0x20 PUSH0 KECCAK256 SWAP1 PUSH1 0x2 MUL ADD PUSH0 SWAP1 SWAP2 SWAP1 SWAP2 SWAP1 SWAP2 POP PUSH0 DUP3 ADD MLOAD DUP2 PUSH0 ADD PUSH0 PUSH2 0x100 EXP DUP2 SLOAD DUP2 PUSH20 0xFFFFFFFFFFFFFFFFFFFFFFFFFFFFFFFFFFFFFFFF MUL NOT AND SWAP1 DUP4 PUSH20 0xFFFFFFFFFFFFFFFFFFFFFFFFFFFFFFFFFFFFFFFF AND MUL OR SWAP1 SSTORE POP PUSH1 0x20 DUP3 ADD MLOAD DUP2 PUSH1 0x1 ADD SSTORE POP POP PUSH0 PUSH1 0x5 PUSH0 DUP5 PUSH20 0xFFFFFFFFFFFFFFFFFFFFFFFFFFFFFFFFFFFFFFFF AND PUSH20 0xFFFFFFFFFFFFFFFFFFFFFFFFFFFFFFFFFFFFFFFF AND DUP2 MSTORE PUSH1 0x20 ADD SWAP1 DUP2 MSTORE PUSH1 0x20 ADD PUSH0 KECCAK256 PUSH1 0x2 ADD SLOAD SUB PUSH2 0x418 JUMPI PUSH1 0x6 DUP3 SWAP1 DUP1 PUSH1 0x1 DUP2 SLOAD ADD DUP1 DUP3 SSTORE DUP1 SWAP2 POP POP PUSH1 0x1 SWAP1 SUB SWAP1 PUSH0 MSTORE PUSH1 0x20 PUSH0 KECCAK256 ADD PUSH0 SWAP1 SWAP2 SWAP1 SWAP2 SWAP1 SWAP2 PUSH2 0x100 EXP DUP2 SLOAD DUP2 PUSH20 0xFFFFFFFFFFFFFFFFFFFFFFFFFFFFFFFFFFFFFFFF MUL NOT AND SWAP1 DUP4 PUSH20 0xFFFFFFFFFFFFFFFFFFFFFFFFFFFFFFFFFFFFFFFF AND MUL OR SWAP1 SSTORE POP JUMPDEST DUP1 PUSH1 0x5 PUSH0 DUP5 PUSH20 0xFFFFFFFFFFFFFFFFFFFFFFFFFFFFFFFFFFFFFFFF AND PUSH20 0xFFFFFFFFFFFFFFFFFFFFFFFFFFFFFFFFFFFFFFFF AND DUP2 MSTORE PUSH1 0x20 ADD SWAP1 DUP2 MSTORE PUSH1 0x20 ADD PUSH0 KECCAK256 PUSH1 0x2 ADD PUSH0 DUP3 DUP3 SLOAD PUSH2 0x467 SWAP2 SWAP1 PUSH2 0xDA5 JUMP JUMPDEST SWAP3 POP POP DUP2 SWAP1 SSTORE POP DUP1 PUSH1 0x5 PUSH0 DUP5 PUSH20 0xFFFFFFFFFFFFFFFFFFFFFFFFFFFFFFFFFFFFFFFF AND PUSH20 0xFFFFFFFFFFFFFFFFFFFFFFFFFFFFFFFFFFFFFFFF AND DUP2 MSTORE PUSH1 0x20 ADD SWAP1 DUP2 MSTORE PUSH1 0x20 ADD PUSH0 KECCAK256 PUSH1 0x1 ADD DUP2 SWAP1 SSTORE POP TIMESTAMP PUSH0 DUP2 SWAP1 SSTORE POP DUP1 PUSH1 0x1 DUP2 SWAP1 SSTORE POP DUP2 PUSH1 0x2 PUSH0 PUSH2 0x100 EXP DUP2 SLOAD DUP2 PUSH20 0xFFFFFFFFFFFFFFFFFFFFFFFFFFFFFFFFFFFFFFFF MUL NOT AND SWAP1 DUP4 PUSH20 0xFFFFFFFFFFFFFFFFFFFFFFFFFFFFFFFFFFFFFFFF AND MUL OR SWAP1 SSTORE POP DUP2 PUSH20 0xFFFFFFFFFFFFFFFFFFFFFFFFFFFFFFFFFFFFFFFF AND PUSH32 0xF0AEEE3B2529B7F726E417EF1625AFFEF3C5AF580CFA8FC6F93109B7C43BCBBB DUP3 PUSH1 0x40 MLOAD PUSH2 0x546 SWAP2 SWAP1 PUSH2 0xF56 JUMP JUMPDEST PUSH1 0x40 MLOAD DUP1 SWAP2 SUB SWAP1 LOG2 POP POP JUMP JUMPDEST PUSH1 0x1 SLOAD PUSH1 0x5 PUSH0 CALLER PUSH20 0xFFFFFFFFFFFFFFFFFFFFFFFFFFFFFFFFFFFFFFFF AND PUSH20 0xFFFFFFFFFFFFFFFFFFFFFFFFFFFFFFFFFFFFFFFF AND DUP2 MSTORE PUSH1 0x20 ADD SWAP1 DUP2 MSTORE PUSH1 0x20 ADD PUSH0 KECCAK256 PUSH1 0x2 ADD SLOAD GT PUSH2 0x5D6 JUMPI PUSH1 0x40 MLOAD PUSH32 0x8C379A000000000000000000000000000000000000000000000000000000000 DUP2 MSTORE PUSH1 0x4 ADD PUSH2 0x5CD SWAP1 PUSH2 0xFB9 JUMP JUMPDEST PUSH1 0x40 MLOAD DUP1 SWAP2 SUB SWAP1 REVERT JUMPDEST PUSH0 CALLER SWAP1 POP PUSH0 PUSH1 0x5 PUSH0 DUP4 PUSH20 0xFFFFFFFFFFFFFFFFFFFFFFFFFFFFFFFFFFFFFFFF AND PUSH20 0xFFFFFFFFFFFFFFFFFFFFFFFFFFFFFFFFFFFFFFFF AND DUP2 MSTORE PUSH1 0x20 ADD SWAP1 DUP2 MSTORE PUSH1 0x20 ADD PUSH0 KECCAK256 PUSH1 0x2 ADD SLOAD SWAP1 POP PUSH0 PUSH1 0x5 PUSH0 DUP5 PUSH20 0xFFFFFFFFFFFFFFFFFFFFFFFFFFFFFFFFFFFFFFFF AND PUSH20 0xFFFFFFFFFFFFFFFFFFFFFFFFFFFFFFFFFFFFFFFF AND DUP2 MSTORE PUSH1 0x20 ADD SWAP1 DUP2 MSTORE PUSH1 0x20 ADD PUSH0 KECCAK256 PUSH1 0x1 ADD SLOAD SWAP1 POP PUSH0 DUP2 DUP4 PUSH2 0x66F SWAP2 SWAP1 PUSH2 0xFD7 JUMP JUMPDEST SWAP1 POP PUSH2 0x67B DUP5 DUP3 PUSH2 0xA8E JUMP JUMPDEST POP POP POP POP JUMP JUMPDEST PUSH1 0x3 PUSH0 SWAP1 SLOAD SWAP1 PUSH2 0x100 EXP SWAP1 DIV PUSH20 0xFFFFFFFFFFFFFFFFFFFFFFFFFFFFFFFFFFFFFFFF AND PUSH20 0xFFFFFFFFFFFFFFFFFFFFFFFFFFFFFFFFFFFFFFFF AND CALLER PUSH20 0xFFFFFFFFFFFFFFFFFFFFFFFFFFFFFFFFFFFFFFFF AND EQ PUSH2 0x710 JUMPI PUSH1 0x40 MLOAD PUSH32 0x8C379A000000000000000000000000000000000000000000000000000000000 DUP2 MSTORE PUSH1 0x4 ADD PUSH2 0x707 SWAP1 PUSH2 0x1054 JUMP JUMPDEST PUSH1 0x40 MLOAD DUP1 SWAP2 SUB SWAP1 REVERT JUMPDEST PUSH2 0x258 PUSH0 SLOAD PUSH2 0x71F SWAP2 SWAP1 PUSH2 0xDA5 JUMP JUMPDEST TIMESTAMP GT PUSH2 0x760 JUMPI PUSH1 0x40 MLOAD PUSH32 0x8C379A000000000000000000000000000000000000000000000000000000000 DUP2 MSTORE PUSH1 0x4 ADD PUSH2 0x757 SWAP1 PUSH2 0x10BC JUMP JUMPDEST PUSH1 0x40 MLOAD DUP1 SWAP2 SUB SWAP1 REVERT JUMPDEST CALLER PUSH20 0xFFFFFFFFFFFFFFFFFFFFFFFFFFFFFFFFFFFFFFFF AND PUSH2 0x8FC SELFBALANCE SWAP1 DUP2 ISZERO MUL SWAP1 PUSH1 0x40 MLOAD PUSH0 PUSH1 0x40 MLOAD DUP1 DUP4 SUB DUP2 DUP6 DUP9 DUP9 CALL SWAP4 POP POP POP POP ISZERO DUP1 ISZERO PUSH2 0x7A3 JUMPI RETURNDATASIZE PUSH0 DUP1 RETURNDATACOPY RETURNDATASIZE PUSH0 REVERT JUMPDEST POP JUMP JUMPDEST PUSH0 DUP1 PUSH1 0x2 PUSH0 SWAP1 SLOAD SWAP1 PUSH2 0x100 EXP SWAP1 DIV PUSH20 0xFFFFFFFFFFFFFFFFFFFFFFFFFFFFFFFFFFFFFFFF AND PUSH1 0x1 SLOAD SWAP2 POP SWAP2 POP SWAP1 SWAP2 JUMP JUMPDEST PUSH1 0x5 PUSH1 0x20 MSTORE DUP1 PUSH0 MSTORE PUSH1 0x40 PUSH0 KECCAK256 PUSH0 SWAP2 POP SWAP1 POP DUP1 PUSH0 ADD PUSH0 SWAP1 SLOAD SWAP1 PUSH2 0x100 EXP SWAP1 DIV PUSH20 0xFFFFFFFFFFFFFFFFFFFFFFFFFFFFFFFFFFFFFFFF AND SWAP1 DUP1 PUSH1 0x1 ADD SLOAD SWAP1 DUP1 PUSH1 0x2 ADD SLOAD SWAP1 POP DUP4 JUMP JUMPDEST PUSH1 0x3 PUSH0 SWAP1 SLOAD SWAP1 PUSH2 0x100 EXP SWAP1 DIV PUSH20 0xFFFFFFFFFFFFFFFFFFFFFFFFFFFFFFFFFFFFFFFF AND PUSH20 0xFFFFFFFFFFFFFFFFFFFFFFFFFFFFFFFFFFFFFFFF AND CALLER PUSH20 0xFFFFFFFFFFFFFFFFFFFFFFFFFFFFFFFFFFFFFFFF AND EQ PUSH2 0x8A9 JUMPI PUSH1 0x40 MLOAD PUSH32 0x8C379A000000000000000000000000000000000000000000000000000000000 DUP2 MSTORE PUSH1 0x4 ADD PUSH2 0x8A0 SWAP1 PUSH2 0x1054 JUMP JUMPDEST PUSH1 0x40 MLOAD DUP1 SWAP2 SUB SWAP1 REVERT JUMPDEST PUSH2 0x258 PUSH0 SLOAD PUSH2 0x8B8 SWAP2 SWAP1 PUSH2 0xDA5 JUMP JUMPDEST TIMESTAMP GT PUSH2 0x8F9 JUMPI PUSH1 0x40 MLOAD PUSH32 0x8C379A000000000000000000000000000000000000000000000000000000000 DUP2 MSTORE PUSH1 0x4 ADD PUSH2 0x8F0 SWAP1 PUSH2 0x10BC JUMP JUMPDEST PUSH1 0x40 MLOAD DUP1 SWAP2 SUB SWAP1 REVERT JUMPDEST PUSH2 0x926 PUSH1 0x2 PUSH0 SWAP1 SLOAD SWAP1 PUSH2 0x100 EXP SWAP1 DIV PUSH20 0xFFFFFFFFFFFFFFFFFFFFFFFFFFFFFFFFFFFFFFFF AND PUSH1 0x1 SLOAD PUSH2 0xA8E JUMP JUMPDEST PUSH0 PUSH1 0x6 DUP1 SLOAD SWAP1 POP SWAP1 POP PUSH0 JUMPDEST DUP2 DUP2 LT ISZERO PUSH2 0xA8A JUMPI PUSH0 PUSH1 0x5 PUSH0 PUSH1 0x6 DUP5 DUP2 SLOAD DUP2 LT PUSH2 0x951 JUMPI PUSH2 0x950 PUSH2 0x10DA JUMP JUMPDEST JUMPDEST SWAP1 PUSH0 MSTORE PUSH1 0x20 PUSH0 KECCAK256 ADD PUSH0 SWAP1 SLOAD SWAP1 PUSH2 0x100 EXP SWAP1 DIV PUSH20 0xFFFFFFFFFFFFFFFFFFFFFFFFFFFFFFFFFFFFFFFF AND PUSH20 0xFFFFFFFFFFFFFFFFFFFFFFFFFFFFFFFFFFFFFFFF AND PUSH20 0xFFFFFFFFFFFFFFFFFFFFFFFFFFFFFFFFFFFFFFFF AND DUP2 MSTORE PUSH1 0x20 ADD SWAP1 DUP2 MSTORE PUSH1 0x20 ADD PUSH0 KECCAK256 PUSH1 0x2 ADD SLOAD GT ISZERO PUSH2 0xA7D JUMPI PUSH2 0xA7C PUSH1 0x6 DUP3 DUP2 SLOAD DUP2 LT PUSH2 0x9D3 JUMPI PUSH2 0x9D2 PUSH2 0x10DA JUMP JUMPDEST JUMPDEST SWAP1 PUSH0 MSTORE PUSH1 0x20 PUSH0 KECCAK256 ADD PUSH0 SWAP1 SLOAD SWAP1 PUSH2 0x100 EXP SWAP1 DIV PUSH20 0xFFFFFFFFFFFFFFFFFFFFFFFFFFFFFFFFFFFFFFFF AND PUSH1 0x5 PUSH0 PUSH1 0x6 DUP6 DUP2 SLOAD DUP2 LT PUSH2 0xA12 JUMPI PUSH2 0xA11 PUSH2 0x10DA JUMP JUMPDEST JUMPDEST SWAP1 PUSH0 MSTORE PUSH1 0x20 PUSH0 KECCAK256 ADD PUSH0 SWAP1 SLOAD SWAP1 PUSH2 0x100 EXP SWAP1 DIV PUSH20 0xFFFFFFFFFFFFFFFFFFFFFFFFFFFFFFFFFFFFFFFF AND PUSH20 0xFFFFFFFFFFFFFFFFFFFFFFFFFFFFFFFFFFFFFFFF AND PUSH20 0xFFFFFFFFFFFFFFFFFFFFFFFFFFFFFFFFFFFFFFFF AND DUP2 MSTORE PUSH1 0x20 ADD SWAP1 DUP2 MSTORE PUSH1 0x20 ADD PUSH0 KECCAK256 PUSH1 0x2 ADD SLOAD PUSH2 0xA8E JUMP JUMPDEST JUMPDEST DUP1 DUP1 PUSH1 0x1 ADD SWAP2 POP POP PUSH2 0x931 JUMP JUMPDEST POP POP JUMP JUMPDEST PUSH0 PUSH1 0x64 PUSH1 0x2 DUP4 PUSH2 0xA9E SWAP2 SWAP1 PUSH2 0xE50 JUMP JUMPDEST PUSH2 0xAA8 SWAP2 SWAP1 PUSH2 0xEBE JUMP JUMPDEST DUP3 PUSH2 0xAB3 SWAP2 SWAP1 PUSH2 0xFD7 JUMP JUMPDEST SWAP1 POP PUSH0 DUP4 SWAP1 POP DUP1 PUSH20 0xFFFFFFFFFFFFFFFFFFFFFFFFFFFFFFFFFFFFFFFF AND PUSH2 0x8FC DUP4 SWAP1 DUP2 ISZERO MUL SWAP1 PUSH1 0x40 MLOAD PUSH0 PUSH1 0x40 MLOAD DUP1 DUP4 SUB DUP2 DUP6 DUP9 DUP9 CALL SWAP4 POP POP POP POP ISZERO DUP1 ISZERO PUSH2 0xAFC JUMPI RETURNDATASIZE PUSH0 DUP1 RETURNDATACOPY RETURNDATASIZE PUSH0 REVERT JUMPDEST POP DUP3 PUSH1 0x5 PUSH0 DUP7 PUSH20 0xFFFFFFFFFFFFFFFFFFFFFFFFFFFFFFFFFFFFFFFF AND PUSH20 0xFFFFFFFFFFFFFFFFFFFFFFFFFFFFFFFFFFFFFFFF AND DUP2 MSTORE PUSH1 0x20 ADD SWAP1 DUP2 MSTORE PUSH1 0x20 ADD PUSH0 KECCAK256 PUSH1 0x2 ADD PUSH0 DUP3 DUP3 SLOAD PUSH2 0xB4C SWAP2 SWAP1 PUSH2 0xFD7 JUMP JUMPDEST SWAP3 POP POP DUP2 SWAP1 SSTORE POP POP POP POP POP JUMP JUMPDEST PUSH0 DUP2 MLOAD SWAP1 POP SWAP2 SWAP1 POP JUMP JUMPDEST PUSH0 DUP3 DUP3 MSTORE PUSH1 0x20 DUP3 ADD SWAP1 POP SWAP3 SWAP2 POP POP JUMP JUMPDEST PUSH0 DUP2 SWAP1 POP PUSH1 0x20 DUP3 ADD SWAP1 POP SWAP2 SWAP1 POP JUMP JUMPDEST PUSH0 PUSH20 0xFFFFFFFFFFFFFFFFFFFFFFFFFFFFFFFFFFFFFFFF DUP3 AND SWAP1 POP SWAP2 SWAP1 POP JUMP JUMPDEST PUSH0 PUSH2 0xBAB DUP3 PUSH2 0xB82 JUMP JUMPDEST SWAP1 POP SWAP2 SWAP1 POP JUMP JUMPDEST PUSH2 0xBBB DUP2 PUSH2 0xBA1 JUMP JUMPDEST DUP3 MSTORE POP POP JUMP JUMPDEST PUSH0 DUP2 SWAP1 POP SWAP2 SWAP1 POP JUMP JUMPDEST PUSH2 0xBD3 DUP2 PUSH2 0xBC1 JUMP JUMPDEST DUP3 MSTORE POP POP JUMP JUMPDEST PUSH1 0x40 DUP3 ADD PUSH0 DUP3 ADD MLOAD PUSH2 0xBED PUSH0 DUP6 ADD DUP3 PUSH2 0xBB2 JUMP JUMPDEST POP PUSH1 0x20 DUP3 ADD MLOAD PUSH2 0xC00 PUSH1 0x20 DUP6 ADD DUP3 PUSH2 0xBCA JUMP JUMPDEST POP POP POP POP JUMP JUMPDEST PUSH0 PUSH2 0xC11 DUP4 DUP4 PUSH2 0xBD9 JUMP JUMPDEST PUSH1 0x40 DUP4 ADD SWAP1 POP SWAP3 SWAP2 POP POP JUMP JUMPDEST PUSH0 PUSH1 0x20 DUP3 ADD SWAP1 POP SWAP2 SWAP1 POP JUMP JUMPDEST PUSH0 PUSH2 0xC33 DUP3 PUSH2 0xB59 JUMP JUMPDEST PUSH2 0xC3D DUP2 DUP6 PUSH2 0xB63 JUMP JUMPDEST SWAP4 POP PUSH2 0xC48 DUP4 PUSH2 0xB73 JUMP JUMPDEST DUP1 PUSH0 JUMPDEST DUP4 DUP2 LT ISZERO PUSH2 0xC78 JUMPI DUP2 MLOAD PUSH2 0xC5F DUP9 DUP3 PUSH2 0xC06 JUMP JUMPDEST SWAP8 POP PUSH2 0xC6A DUP4 PUSH2 0xC1D JUMP JUMPDEST SWAP3 POP POP PUSH1 0x1 DUP2 ADD SWAP1 POP PUSH2 0xC4B JUMP JUMPDEST POP DUP6 SWAP4 POP POP POP POP SWAP3 SWAP2 POP POP JUMP JUMPDEST PUSH0 PUSH1 0x20 DUP3 ADD SWAP1 POP DUP2 DUP2 SUB PUSH0 DUP4 ADD MSTORE PUSH2 0xC9D DUP2 DUP5 PUSH2 0xC29 JUMP JUMPDEST SWAP1 POP SWAP3 SWAP2 POP POP JUMP JUMPDEST PUSH2 0xCAE DUP2 PUSH2 0xBA1 JUMP JUMPDEST DUP3 MSTORE POP POP JUMP JUMPDEST PUSH2 0xCBD DUP2 PUSH2 0xBC1 JUMP JUMPDEST DUP3 MSTORE POP POP JUMP JUMPDEST PUSH0 PUSH1 0x40 DUP3 ADD SWAP1 POP PUSH2 0xCD6 PUSH0 DUP4 ADD DUP6 PUSH2 0xCA5 JUMP JUMPDEST PUSH2 0xCE3 PUSH1 0x20 DUP4 ADD DUP5 PUSH2 0xCB4 JUMP JUMPDEST SWAP4 SWAP3 POP POP POP JUMP JUMPDEST PUSH0 DUP1 REVERT JUMPDEST PUSH2 0xCF7 DUP2 PUSH2 0xBA1 JUMP JUMPDEST DUP2 EQ PUSH2 0xD01 JUMPI PUSH0 DUP1 REVERT JUMPDEST POP JUMP JUMPDEST PUSH0 DUP2 CALLDATALOAD SWAP1 POP PUSH2 0xD12 DUP2 PUSH2 0xCEE JUMP JUMPDEST SWAP3 SWAP2 POP POP JUMP JUMPDEST PUSH0 PUSH1 0x20 DUP3 DUP5 SUB SLT ISZERO PUSH2 0xD2D JUMPI PUSH2 0xD2C PUSH2 0xCEA JUMP JUMPDEST JUMPDEST PUSH0 PUSH2 0xD3A DUP5 DUP3 DUP6 ADD PUSH2 0xD04 JUMP JUMPDEST SWAP2 POP POP SWAP3 SWAP2 POP POP JUMP JUMPDEST PUSH0 PUSH1 0x60 DUP3 ADD SWAP1 POP PUSH2 0xD56 PUSH0 DUP4 ADD DUP7 PUSH2 0xCA5 JUMP JUMPDEST PUSH2 0xD63 PUSH1 0x20 DUP4 ADD DUP6 PUSH2 0xCB4 JUMP JUMPDEST PUSH2 0xD70 PUSH1 0x40 DUP4 ADD DUP5 PUSH2 0xCB4 JUMP JUMPDEST SWAP5 SWAP4 POP POP POP POP JUMP JUMPDEST PUSH32 0x4E487B7100000000000000000000000000000000000000000000000000000000 PUSH0 MSTORE PUSH1 0x11 PUSH1 0x4 MSTORE PUSH1 0x24 PUSH0 REVERT JUMPDEST PUSH0 PUSH2 0xDAF DUP3 PUSH2 0xBC1 JUMP JUMPDEST SWAP2 POP PUSH2 0xDBA DUP4 PUSH2 0xBC1 JUMP JUMPDEST SWAP3 POP DUP3 DUP3 ADD SWAP1 POP DUP1 DUP3 GT ISZERO PUSH2 0xDD2 JUMPI PUSH2 0xDD1 PUSH2 0xD78 JUMP JUMPDEST JUMPDEST SWAP3 SWAP2 POP POP JUMP JUMPDEST PUSH0 DUP3 DUP3 MSTORE PUSH1 0x20 DUP3 ADD SWAP1 POP SWAP3 SWAP2 POP POP JUMP JUMPDEST PUSH32 0x4C612073756261737461207465726D696E6F0000000000000000000000000000 PUSH0 DUP3 ADD MSTORE POP JUMP JUMPDEST PUSH0 PUSH2 0xE1C PUSH1 0x12 DUP4 PUSH2 0xDD8 JUMP JUMPDEST SWAP2 POP PUSH2 0xE27 DUP3 PUSH2 0xDE8 JUMP JUMPDEST PUSH1 0x20 DUP3 ADD SWAP1 POP SWAP2 SWAP1 POP JUMP JUMPDEST PUSH0 PUSH1 0x20 DUP3 ADD SWAP1 POP DUP2 DUP2 SUB PUSH0 DUP4 ADD MSTORE PUSH2 0xE49 DUP2 PUSH2 0xE10 JUMP JUMPDEST SWAP1 POP SWAP2 SWAP1 POP JUMP JUMPDEST PUSH0 PUSH2 0xE5A DUP3 PUSH2 0xBC1 JUMP JUMPDEST SWAP2 POP PUSH2 0xE65 DUP4 PUSH2 0xBC1 JUMP JUMPDEST SWAP3 POP DUP3 DUP3 MUL PUSH2 0xE73 DUP2 PUSH2 0xBC1 JUMP JUMPDEST SWAP2 POP DUP3 DUP3 DIV DUP5 EQ DUP4 ISZERO OR PUSH2 0xE8A JUMPI PUSH2 0xE89 PUSH2 0xD78 JUMP JUMPDEST JUMPDEST POP SWAP3 SWAP2 POP POP JUMP JUMPDEST PUSH32 0x4E487B7100000000000000000000000000000000000000000000000000000000 PUSH0 MSTORE PUSH1 0x12 PUSH1 0x4 MSTORE PUSH1 0x24 PUSH0 REVERT JUMPDEST PUSH0 PUSH2 0xEC8 DUP3 PUSH2 0xBC1 JUMP JUMPDEST SWAP2 POP PUSH2 0xED3 DUP4 PUSH2 0xBC1 JUMP JUMPDEST SWAP3 POP DUP3 PUSH2 0xEE3 JUMPI PUSH2 0xEE2 PUSH2 0xE91 JUMP JUMPDEST JUMPDEST DUP3 DUP3 DIV SWAP1 POP SWAP3 SWAP2 POP POP JUMP JUMPDEST PUSH32 0x4E6F207375706572617374650000000000000000000000000000000000000000 PUSH0 DUP3 ADD MSTORE POP JUMP JUMPDEST PUSH0 PUSH2 0xF22 PUSH1 0xC DUP4 PUSH2 0xDD8 JUMP JUMPDEST SWAP2 POP PUSH2 0xF2D DUP3 PUSH2 0xEEE JUMP JUMPDEST PUSH1 0x20 DUP3 ADD SWAP1 POP SWAP2 SWAP1 POP JUMP JUMPDEST PUSH0 PUSH1 0x20 DUP3 ADD SWAP1 POP DUP2 DUP2 SUB PUSH0 DUP4 ADD MSTORE PUSH2 0xF4F DUP2 PUSH2 0xF16 JUMP JUMPDEST SWAP1 POP SWAP2 SWAP1 POP JUMP JUMPDEST PUSH0 PUSH1 0x20 DUP3 ADD SWAP1 POP PUSH2 0xF69 PUSH0 DUP4 ADD DUP5 PUSH2 0xCB4 JUMP JUMPDEST SWAP3 SWAP2 POP POP JUMP JUMPDEST PUSH32 0x4E6164612061206465766F6C7665720000000000000000000000000000000000 PUSH0 DUP3 ADD MSTORE POP JUMP JUMPDEST PUSH0 PUSH2 0xFA3 PUSH1 0xF DUP4 PUSH2 0xDD8 JUMP JUMPDEST SWAP2 POP PUSH2 0xFAE DUP3 PUSH2 0xF6F JUMP JUMPDEST PUSH1 0x20 DUP3 ADD SWAP1 POP SWAP2 SWAP1 POP JUMP JUMPDEST PUSH0 PUSH1 0x20 DUP3 ADD SWAP1 POP DUP2 DUP2 SUB PUSH0 DUP4 ADD MSTORE PUSH2 0xFD0 DUP2 PUSH2 0xF97 JUMP JUMPDEST SWAP1 POP SWAP2 SWAP1 POP JUMP JUMPDEST PUSH0 PUSH2 0xFE1 DUP3 PUSH2 0xBC1 JUMP JUMPDEST SWAP2 POP PUSH2 0xFEC DUP4 PUSH2 0xBC1 JUMP JUMPDEST SWAP3 POP DUP3 DUP3 SUB SWAP1 POP DUP2 DUP2 GT ISZERO PUSH2 0x1004 JUMPI PUSH2 0x1003 PUSH2 0xD78 JUMP JUMPDEST JUMPDEST SWAP3 SWAP2 POP POP JUMP JUMPDEST PUSH32 0x4E6F206175746F72697A61646F00000000000000000000000000000000000000 PUSH0 DUP3 ADD MSTORE POP JUMP JUMPDEST PUSH0 PUSH2 0x103E PUSH1 0xD DUP4 PUSH2 0xDD8 JUMP JUMPDEST SWAP2 POP PUSH2 0x1049 DUP3 PUSH2 0x100A JUMP JUMPDEST PUSH1 0x20 DUP3 ADD SWAP1 POP SWAP2 SWAP1 POP JUMP JUMPDEST PUSH0 PUSH1 0x20 DUP3 ADD SWAP1 POP DUP2 DUP2 SUB PUSH0 DUP4 ADD MSTORE PUSH2 0x106B DUP2 PUSH2 0x1032 JUMP JUMPDEST SWAP1 POP SWAP2 SWAP1 POP JUMP JUMPDEST PUSH32 0x4C612073756261737461206E6F207465726D696E6F0000000000000000000000 PUSH0 DUP3 ADD MSTORE POP JUMP JUMPDEST PUSH0 PUSH2 0x10A6 PUSH1 0x15 DUP4 PUSH2 0xDD8 JUMP JUMPDEST SWAP2 POP PUSH2 0x10B1 DUP3 PUSH2 0x1072 JUMP JUMPDEST PUSH1 0x20 DUP3 ADD SWAP1 POP SWAP2 SWAP1 POP JUMP JUMPDEST PUSH0 PUSH1 0x20 DUP3 ADD SWAP1 POP DUP2 DUP2 SUB PUSH0 DUP4 ADD MSTORE PUSH2 0x10D3 DUP2 PUSH2 0x109A JUMP JUMPDEST SWAP1 POP SWAP2 SWAP1 POP JUMP JUMPDEST PUSH32 0x4E487B7100000000000000000000000000000000000000000000000000000000 PUSH0 MSTORE PUSH1 0x32 PUSH1 0x4 MSTORE PUSH1 0x24 PUSH0 REVERT INVALID LOG2 PUSH5 0x6970667358 0x22 SLT KECCAK256 JUMP PUSH27 0x60A264F4932A3E1F197C441E29F38C4A1AB3E2C19398A58F2DD7D4 KECCAK256 JUMPDEST 0xFB PUSH5 0x736F6C6343 STOP ADDMOD BYTE STOP CALLER "
				},
				"gasEstimates": {
					"creation": {
						"codeDepositCost": "882600",
						"executionCost": "47291",
						"totalCost": "929891"
					},
					"external": {
						"balance(address)": "infinite",
						"bid()": "infinite",
						"endRefund()": "infinite",
						"getWinner()": "4750",
						"partialRefund()": "infinite",
						"showBids()": "infinite",
						"withdraw()": "infinite"
					},
					"internal": {
						"refund(address,uint256)": "infinite"
					}
				},
				"methodIdentifiers": {
					"balance(address)": "e3d670d7",
					"bid()": "1998aeef",
					"endRefund()": "f0392a88",
					"getWinner()": "8e7ea5b2",
					"partialRefund()": "1ce2bcf5",
					"showBids()": "14d2687c",
					"withdraw()": "3ccfd60b"
				}
			},
			"storageLayout": {
				"storage": [
					{
						"astId": 3,
						"contract": "SubastaSandra.sol:SubastaSandra",
						"label": "startDate",
						"offset": 0,
						"slot": "0",
						"type": "t_uint256"
					},
					{
						"astId": 5,
						"contract": "SubastaSandra.sol:SubastaSandra",
						"label": "maxPrice",
						"offset": 0,
						"slot": "1",
						"type": "t_uint256"
					},
					{
						"astId": 7,
						"contract": "SubastaSandra.sol:SubastaSandra",
						"label": "maxAddr",
						"offset": 0,
						"slot": "2",
						"type": "t_address"
					},
					{
						"astId": 9,
						"contract": "SubastaSandra.sol:SubastaSandra",
						"label": "owner",
						"offset": 0,
						"slot": "3",
						"type": "t_address"
					},
					{
						"astId": 25,
						"contract": "SubastaSandra.sol:SubastaSandra",
						"label": "bidders",
						"offset": 0,
						"slot": "4",
						"type": "t_array(t_struct(Bidder)14_storage)dyn_storage"
					},
					{
						"astId": 30,
						"contract": "SubastaSandra.sol:SubastaSandra",
						"label": "balance",
						"offset": 0,
						"slot": "5",
						"type": "t_mapping(t_address,t_struct(Record)21_storage)"
					},
					{
						"astId": 33,
						"contract": "SubastaSandra.sol:SubastaSandra",
						"label": "uniqueAddrs",
						"offset": 0,
						"slot": "6",
						"type": "t_array(t_address)dyn_storage"
					}
				],
				"types": {
					"t_address": {
						"encoding": "inplace",
						"label": "address",
						"numberOfBytes": "20"
					},
					"t_array(t_address)dyn_storage": {
						"base": "t_address",
						"encoding": "dynamic_array",
						"label": "address[]",
						"numberOfBytes": "32"
					},
					"t_array(t_struct(Bidder)14_storage)dyn_storage": {
						"base": "t_struct(Bidder)14_storage",
						"encoding": "dynamic_array",
						"label": "struct SubastaSandra.Bidder[]",
						"numberOfBytes": "32"
					},
					"t_mapping(t_address,t_struct(Record)21_storage)": {
						"encoding": "mapping",
						"key": "t_address",
						"label": "mapping(address => struct SubastaSandra.Record)",
						"numberOfBytes": "32",
						"value": "t_struct(Record)21_storage"
					},
					"t_struct(Bidder)14_storage": {
						"encoding": "inplace",
						"label": "struct SubastaSandra.Bidder",
						"members": [
							{
								"astId": 11,
								"contract": "SubastaSandra.sol:SubastaSandra",
								"label": "bidderAddr",
								"offset": 0,
								"slot": "0",
								"type": "t_address"
							},
							{
								"astId": 13,
								"contract": "SubastaSandra.sol:SubastaSandra",
								"label": "price",
								"offset": 0,
								"slot": "1",
								"type": "t_uint256"
							}
						],
						"numberOfBytes": "64"
					},
					"t_struct(Record)21_storage": {
						"encoding": "inplace",
						"label": "struct SubastaSandra.Record",
						"members": [
							{
								"astId": 16,
								"contract": "SubastaSandra.sol:SubastaSandra",
								"label": "bidderAddr",
								"offset": 0,
								"slot": "0",
								"type": "t_address"
							},
							{
								"astId": 18,
								"contract": "SubastaSandra.sol:SubastaSandra",
								"label": "price",
								"offset": 0,
								"slot": "1",
								"type": "t_uint256"
							},
							{
								"astId": 20,
								"contract": "SubastaSandra.sol:SubastaSandra",
								"label": "balance",
								"offset": 0,
								"slot": "2",
								"type": "t_uint256"
							}
						],
						"numberOfBytes": "96"
					},
					"t_uint256": {
						"encoding": "inplace",
						"label": "uint256",
						"numberOfBytes": "32"
					}
				}
			},
			"userdoc": {
				"kind": "user",
				"methods": {},
				"version": 1
			}
		}
	}
}