{
	"MiArray.sol": {
		"MiArray": {
			"abi": [
				{
					"inputs": [],
					"name": "listSendersAndValues",
					"outputs": [
						{
							"components": [
								{
									"internalType": "address",
									"name": "sender",
									"type": "address"
								},
								{
									"internalType": "uint256",
									"name": "value",
									"type": "uint256"
								}
							],
							"internalType": "struct MiArray.SenderValue[]",
							"name": "",
							"type": "tuple[]"
						}
					],
					"stateMutability": "view",
					"type": "function"
				},
				{
					"inputs": [
						{
							"internalType": "uint256",
							"name": "",
							"type": "uint256"
						}
					],
					"name": "senderValues",
					"outputs": [
						{
							"internalType": "address",
							"name": "sender",
							"type": "address"
						},
						{
							"internalType": "uint256",
							"name": "value",
							"type": "uint256"
						}
					],
					"stateMutability": "view",
					"type": "function"
				},
				{
					"inputs": [],
					"name": "storeSenderValue",
					"outputs": [],
					"stateMutability": "payable",
					"type": "function"
				}
			],
			"devdoc": {
				"kind": "dev",
				"methods": {},
				"version": 1
			},
			"evm": {
				"assembly": "    /* \"MiArray.sol\":58:447  contract MiArray {... */\n  mstore(0x40, 0x80)\n  callvalue\n  dup1\n  iszero\n  tag_1\n  jumpi\n  0x00\n  dup1\n  revert\ntag_1:\n  pop\n  dataSize(sub_0)\n  dup1\n  dataOffset(sub_0)\n  0x00\n  codecopy\n  0x00\n  return\nstop\n\nsub_0: assembly {\n        /* \"MiArray.sol\":58:447  contract MiArray {... */\n      mstore(0x40, 0x80)\n      jumpi(tag_1, lt(calldatasize, 0x04))\n      shr(0xe0, calldataload(0x00))\n      dup1\n      0x48504c8a\n      eq\n      tag_2\n      jumpi\n      dup1\n      0x6b6c7a8b\n      eq\n      tag_3\n      jumpi\n      dup1\n      0x8c0f4336\n      eq\n      tag_4\n      jumpi\n    tag_1:\n      0x00\n      dup1\n      revert\n        /* \"MiArray.sol\":208:323  function storeSenderValue() public payable {... */\n    tag_2:\n      tag_5\n      tag_6\n      jump\t// in\n    tag_5:\n      stop\n        /* \"MiArray.sol\":166:199  SenderValue[] public senderValues */\n    tag_3:\n      callvalue\n      dup1\n      iszero\n      tag_7\n      jumpi\n      0x00\n      dup1\n      revert\n    tag_7:\n      pop\n      tag_8\n      0x04\n      dup1\n      calldatasize\n      sub\n      dup2\n      add\n      swap1\n      tag_9\n      swap2\n      swap1\n      tag_10\n      jump\t// in\n    tag_9:\n      tag_11\n      jump\t// in\n    tag_8:\n      mload(0x40)\n      tag_12\n      swap3\n      swap2\n      swap1\n      tag_13\n      jump\t// in\n    tag_12:\n      mload(0x40)\n      dup1\n      swap2\n      sub\n      swap1\n      return\n        /* \"MiArray.sol\":331:444  function listSendersAndValues() public view returns (SenderValue[] memory) {... */\n    tag_4:\n      callvalue\n      dup1\n      iszero\n      tag_14\n      jumpi\n      0x00\n      dup1\n      revert\n    tag_14:\n      pop\n      tag_15\n      tag_16\n      jump\t// in\n    tag_15:\n      mload(0x40)\n      tag_17\n      swap2\n      swap1\n      tag_18\n      jump\t// in\n    tag_17:\n      mload(0x40)\n      dup1\n      swap2\n      sub\n      swap1\n      return\n        /* \"MiArray.sol\":208:323  function storeSenderValue() public payable {... */\n    tag_6:\n        /* \"MiArray.sol\":262:274  senderValues */\n      0x00\n        /* \"MiArray.sol\":280:314  SenderValue(msg.sender, msg.value) */\n      mload(0x40)\n      dup1\n      0x40\n      add\n      0x40\n      mstore\n      dup1\n        /* \"MiArray.sol\":292:302  msg.sender */\n      caller\n        /* \"MiArray.sol\":280:314  SenderValue(msg.sender, msg.value) */\n      0xffffffffffffffffffffffffffffffffffffffff\n      and\n      dup2\n      mstore\n      0x20\n      add\n        /* \"MiArray.sol\":304:313  msg.value */\n      callvalue\n        /* \"MiArray.sol\":280:314  SenderValue(msg.sender, msg.value) */\n      dup2\n      mstore\n      pop\n        /* \"MiArray.sol\":262:315  senderValues.push(SenderValue(msg.sender, msg.value)) */\n      swap1\n      dup1\n      0x01\n      dup2\n      sload\n      add\n      dup1\n      dup3\n      sstore\n      dup1\n      swap2\n      pop\n      pop\n      0x01\n      swap1\n      sub\n      swap1\n      0x00\n      mstore\n      keccak256(0x00, 0x20)\n      swap1\n      0x02\n      mul\n      add\n      0x00\n      swap1\n      swap2\n      swap1\n      swap2\n      swap1\n      swap2\n      pop\n      0x00\n      dup3\n      add\n      mload\n      dup2\n      0x00\n      add\n      exp(0x0100, 0x00)\n      dup2\n      sload\n      dup2\n      0xffffffffffffffffffffffffffffffffffffffff\n      mul\n      not\n      and\n      swap1\n      dup4\n      0xffffffffffffffffffffffffffffffffffffffff\n      and\n      mul\n      or\n      swap1\n      sstore\n      pop\n      0x20\n      dup3\n      add\n      mload\n      dup2\n      0x01\n      add\n      sstore\n      pop\n      pop\n        /* \"MiArray.sol\":208:323  function storeSenderValue() public payable {... */\n      jump\t// out\n        /* \"MiArray.sol\":166:199  SenderValue[] public senderValues */\n    tag_11:\n      0x00\n      dup2\n      dup2\n      sload\n      dup2\n      lt\n      tag_21\n      jumpi\n      0x00\n      dup1\n      revert\n    tag_21:\n      swap1\n      0x00\n      mstore\n      keccak256(0x00, 0x20)\n      swap1\n      0x02\n      mul\n      add\n      0x00\n      swap2\n      pop\n      swap1\n      pop\n      dup1\n      0x00\n      add\n      0x00\n      swap1\n      sload\n      swap1\n      0x0100\n      exp\n      swap1\n      div\n      0xffffffffffffffffffffffffffffffffffffffff\n      and\n      swap1\n      dup1\n      0x01\n      add\n      sload\n      swap1\n      pop\n      dup3\n      jump\t// out\n        /* \"MiArray.sol\":331:444  function listSendersAndValues() public view returns (SenderValue[] memory) {... */\n    tag_16:\n        /* \"MiArray.sol\":384:404  SenderValue[] memory */\n      0x60\n        /* \"MiArray.sol\":424:436  senderValues */\n      0x00\n        /* \"MiArray.sol\":417:436  return senderValues */\n      dup1\n      sload\n      dup1\n      0x20\n      mul\n      0x20\n      add\n      mload(0x40)\n      swap1\n      dup2\n      add\n      0x40\n      mstore\n      dup1\n      swap3\n      swap2\n      swap1\n      dup2\n      dup2\n      mstore\n      0x20\n      add\n      0x00\n      swap1\n    tag_24:\n      dup3\n      dup3\n      lt\n      iszero\n      tag_25\n      jumpi\n      dup4\n      dup3\n      swap1\n      0x00\n      mstore\n      keccak256(0x00, 0x20)\n      swap1\n      0x02\n      mul\n      add\n      mload(0x40)\n      dup1\n      0x40\n      add\n      0x40\n      mstore\n      swap1\n      dup2\n      0x00\n      dup3\n      add\n      0x00\n      swap1\n      sload\n      swap1\n      0x0100\n      exp\n      swap1\n      div\n      0xffffffffffffffffffffffffffffffffffffffff\n      and\n      0xffffffffffffffffffffffffffffffffffffffff\n      and\n      0xffffffffffffffffffffffffffffffffffffffff\n      and\n      dup2\n      mstore\n      0x20\n      add\n      0x01\n      dup3\n      add\n      sload\n      dup2\n      mstore\n      pop\n      pop\n      dup2\n      mstore\n      0x20\n      add\n      swap1\n      0x01\n      add\n      swap1\n      jump(tag_24)\n    tag_25:\n      pop\n      pop\n      pop\n      pop\n      swap1\n      pop\n        /* \"MiArray.sol\":331:444  function listSendersAndValues() public view returns (SenderValue[] memory) {... */\n      swap1\n      jump\t// out\n        /* \"#utility.yul\":88:205   */\n    tag_28:\n        /* \"#utility.yul\":197:198   */\n      0x00\n        /* \"#utility.yul\":194:195   */\n      dup1\n        /* \"#utility.yul\":187:199   */\n      revert\n        /* \"#utility.yul\":334:411   */\n    tag_30:\n        /* \"#utility.yul\":371:378   */\n      0x00\n        /* \"#utility.yul\":400:405   */\n      dup2\n        /* \"#utility.yul\":389:405   */\n      swap1\n      pop\n        /* \"#utility.yul\":334:411   */\n      swap2\n      swap1\n      pop\n      jump\t// out\n        /* \"#utility.yul\":417:539   */\n    tag_31:\n        /* \"#utility.yul\":490:514   */\n      tag_52\n        /* \"#utility.yul\":508:513   */\n      dup2\n        /* \"#utility.yul\":490:514   */\n      tag_30\n      jump\t// in\n    tag_52:\n        /* \"#utility.yul\":483:488   */\n      dup2\n        /* \"#utility.yul\":480:515   */\n      eq\n        /* \"#utility.yul\":470:533   */\n      tag_53\n      jumpi\n        /* \"#utility.yul\":529:530   */\n      0x00\n        /* \"#utility.yul\":526:527   */\n      dup1\n        /* \"#utility.yul\":519:531   */\n      revert\n        /* \"#utility.yul\":470:533   */\n    tag_53:\n        /* \"#utility.yul\":417:539   */\n      pop\n      jump\t// out\n        /* \"#utility.yul\":545:684   */\n    tag_32:\n        /* \"#utility.yul\":591:596   */\n      0x00\n        /* \"#utility.yul\":629:635   */\n      dup2\n        /* \"#utility.yul\":616:636   */\n      calldataload\n        /* \"#utility.yul\":607:636   */\n      swap1\n      pop\n        /* \"#utility.yul\":645:678   */\n      tag_55\n        /* \"#utility.yul\":672:677   */\n      dup2\n        /* \"#utility.yul\":645:678   */\n      tag_31\n      jump\t// in\n    tag_55:\n        /* \"#utility.yul\":545:684   */\n      swap3\n      swap2\n      pop\n      pop\n      jump\t// out\n        /* \"#utility.yul\":690:1019   */\n    tag_10:\n        /* \"#utility.yul\":749:755   */\n      0x00\n        /* \"#utility.yul\":798:800   */\n      0x20\n        /* \"#utility.yul\":786:795   */\n      dup3\n        /* \"#utility.yul\":777:784   */\n      dup5\n        /* \"#utility.yul\":773:796   */\n      sub\n        /* \"#utility.yul\":769:801   */\n      slt\n        /* \"#utility.yul\":766:885   */\n      iszero\n      tag_57\n      jumpi\n        /* \"#utility.yul\":804:883   */\n      tag_58\n      tag_28\n      jump\t// in\n    tag_58:\n        /* \"#utility.yul\":766:885   */\n    tag_57:\n        /* \"#utility.yul\":924:925   */\n      0x00\n        /* \"#utility.yul\":949:1002   */\n      tag_59\n        /* \"#utility.yul\":994:1001   */\n      dup5\n        /* \"#utility.yul\":985:991   */\n      dup3\n        /* \"#utility.yul\":974:983   */\n      dup6\n        /* \"#utility.yul\":970:992   */\n      add\n        /* \"#utility.yul\":949:1002   */\n      tag_32\n      jump\t// in\n    tag_59:\n        /* \"#utility.yul\":939:1002   */\n      swap2\n      pop\n        /* \"#utility.yul\":895:1012   */\n      pop\n        /* \"#utility.yul\":690:1019   */\n      swap3\n      swap2\n      pop\n      pop\n      jump\t// out\n        /* \"#utility.yul\":1025:1151   */\n    tag_33:\n        /* \"#utility.yul\":1062:1069   */\n      0x00\n        /* \"#utility.yul\":1102:1144   */\n      0xffffffffffffffffffffffffffffffffffffffff\n        /* \"#utility.yul\":1095:1100   */\n      dup3\n        /* \"#utility.yul\":1091:1145   */\n      and\n        /* \"#utility.yul\":1080:1145   */\n      swap1\n      pop\n        /* \"#utility.yul\":1025:1151   */\n      swap2\n      swap1\n      pop\n      jump\t// out\n        /* \"#utility.yul\":1157:1253   */\n    tag_34:\n        /* \"#utility.yul\":1194:1201   */\n      0x00\n        /* \"#utility.yul\":1223:1247   */\n      tag_62\n        /* \"#utility.yul\":1241:1246   */\n      dup3\n        /* \"#utility.yul\":1223:1247   */\n      tag_33\n      jump\t// in\n    tag_62:\n        /* \"#utility.yul\":1212:1247   */\n      swap1\n      pop\n        /* \"#utility.yul\":1157:1253   */\n      swap2\n      swap1\n      pop\n      jump\t// out\n        /* \"#utility.yul\":1259:1377   */\n    tag_35:\n        /* \"#utility.yul\":1346:1370   */\n      tag_64\n        /* \"#utility.yul\":1364:1369   */\n      dup2\n        /* \"#utility.yul\":1346:1370   */\n      tag_34\n      jump\t// in\n    tag_64:\n        /* \"#utility.yul\":1341:1344   */\n      dup3\n        /* \"#utility.yul\":1334:1371   */\n      mstore\n        /* \"#utility.yul\":1259:1377   */\n      pop\n      pop\n      jump\t// out\n        /* \"#utility.yul\":1383:1501   */\n    tag_36:\n        /* \"#utility.yul\":1470:1494   */\n      tag_66\n        /* \"#utility.yul\":1488:1493   */\n      dup2\n        /* \"#utility.yul\":1470:1494   */\n      tag_30\n      jump\t// in\n    tag_66:\n        /* \"#utility.yul\":1465:1468   */\n      dup3\n        /* \"#utility.yul\":1458:1495   */\n      mstore\n        /* \"#utility.yul\":1383:1501   */\n      pop\n      pop\n      jump\t// out\n        /* \"#utility.yul\":1507:1839   */\n    tag_13:\n        /* \"#utility.yul\":1628:1632   */\n      0x00\n        /* \"#utility.yul\":1666:1668   */\n      0x40\n        /* \"#utility.yul\":1655:1664   */\n      dup3\n        /* \"#utility.yul\":1651:1669   */\n      add\n        /* \"#utility.yul\":1643:1669   */\n      swap1\n      pop\n        /* \"#utility.yul\":1679:1750   */\n      tag_68\n        /* \"#utility.yul\":1747:1748   */\n      0x00\n        /* \"#utility.yul\":1736:1745   */\n      dup4\n        /* \"#utility.yul\":1732:1749   */\n      add\n        /* \"#utility.yul\":1723:1729   */\n      dup6\n        /* \"#utility.yul\":1679:1750   */\n      tag_35\n      jump\t// in\n    tag_68:\n        /* \"#utility.yul\":1760:1832   */\n      tag_69\n        /* \"#utility.yul\":1828:1830   */\n      0x20\n        /* \"#utility.yul\":1817:1826   */\n      dup4\n        /* \"#utility.yul\":1813:1831   */\n      add\n        /* \"#utility.yul\":1804:1810   */\n      dup5\n        /* \"#utility.yul\":1760:1832   */\n      tag_36\n      jump\t// in\n    tag_69:\n        /* \"#utility.yul\":1507:1839   */\n      swap4\n      swap3\n      pop\n      pop\n      pop\n      jump\t// out\n        /* \"#utility.yul\":1845:1985   */\n    tag_37:\n        /* \"#utility.yul\":1938:1944   */\n      0x00\n        /* \"#utility.yul\":1972:1977   */\n      dup2\n        /* \"#utility.yul\":1966:1978   */\n      mload\n        /* \"#utility.yul\":1956:1978   */\n      swap1\n      pop\n        /* \"#utility.yul\":1845:1985   */\n      swap2\n      swap1\n      pop\n      jump\t// out\n        /* \"#utility.yul\":1991:2201   */\n    tag_38:\n        /* \"#utility.yul\":2116:2127   */\n      0x00\n        /* \"#utility.yul\":2150:2156   */\n      dup3\n        /* \"#utility.yul\":2145:2148   */\n      dup3\n        /* \"#utility.yul\":2138:2157   */\n      mstore\n        /* \"#utility.yul\":2190:2194   */\n      0x20\n        /* \"#utility.yul\":2185:2188   */\n      dup3\n        /* \"#utility.yul\":2181:2195   */\n      add\n        /* \"#utility.yul\":2166:2195   */\n      swap1\n      pop\n        /* \"#utility.yul\":1991:2201   */\n      swap3\n      swap2\n      pop\n      pop\n      jump\t// out\n        /* \"#utility.yul\":2207:2365   */\n    tag_39:\n        /* \"#utility.yul\":2300:2304   */\n      0x00\n        /* \"#utility.yul\":2323:2326   */\n      dup2\n        /* \"#utility.yul\":2315:2326   */\n      swap1\n      pop\n        /* \"#utility.yul\":2353:2357   */\n      0x20\n        /* \"#utility.yul\":2348:2351   */\n      dup3\n        /* \"#utility.yul\":2344:2358   */\n      add\n        /* \"#utility.yul\":2336:2358   */\n      swap1\n      pop\n        /* \"#utility.yul\":2207:2365   */\n      swap2\n      swap1\n      pop\n      jump\t// out\n        /* \"#utility.yul\":2371:2479   */\n    tag_40:\n        /* \"#utility.yul\":2448:2472   */\n      tag_74\n        /* \"#utility.yul\":2466:2471   */\n      dup2\n        /* \"#utility.yul\":2448:2472   */\n      tag_34\n      jump\t// in\n    tag_74:\n        /* \"#utility.yul\":2443:2446   */\n      dup3\n        /* \"#utility.yul\":2436:2473   */\n      mstore\n        /* \"#utility.yul\":2371:2479   */\n      pop\n      pop\n      jump\t// out\n        /* \"#utility.yul\":2485:2593   */\n    tag_41:\n        /* \"#utility.yul\":2562:2586   */\n      tag_76\n        /* \"#utility.yul\":2580:2585   */\n      dup2\n        /* \"#utility.yul\":2562:2586   */\n      tag_30\n      jump\t// in\n    tag_76:\n        /* \"#utility.yul\":2557:2560   */\n      dup3\n        /* \"#utility.yul\":2550:2587   */\n      mstore\n        /* \"#utility.yul\":2485:2593   */\n      pop\n      pop\n      jump\t// out\n        /* \"#utility.yul\":2663:3165   */\n    tag_42:\n        /* \"#utility.yul\":2802:2806   */\n      0x40\n        /* \"#utility.yul\":2797:2800   */\n      dup3\n        /* \"#utility.yul\":2793:2807   */\n      add\n        /* \"#utility.yul\":2891:2895   */\n      0x00\n        /* \"#utility.yul\":2884:2889   */\n      dup3\n        /* \"#utility.yul\":2880:2896   */\n      add\n        /* \"#utility.yul\":2874:2897   */\n      mload\n        /* \"#utility.yul\":2910:2973   */\n      tag_78\n        /* \"#utility.yul\":2967:2971   */\n      0x00\n        /* \"#utility.yul\":2962:2965   */\n      dup6\n        /* \"#utility.yul\":2958:2972   */\n      add\n        /* \"#utility.yul\":2944:2956   */\n      dup3\n        /* \"#utility.yul\":2910:2973   */\n      tag_40\n      jump\t// in\n    tag_78:\n        /* \"#utility.yul\":2817:2983   */\n      pop\n        /* \"#utility.yul\":3066:3070   */\n      0x20\n        /* \"#utility.yul\":3059:3064   */\n      dup3\n        /* \"#utility.yul\":3055:3071   */\n      add\n        /* \"#utility.yul\":3049:3072   */\n      mload\n        /* \"#utility.yul\":3085:3148   */\n      tag_79\n        /* \"#utility.yul\":3142:3146   */\n      0x20\n        /* \"#utility.yul\":3137:3140   */\n      dup6\n        /* \"#utility.yul\":3133:3147   */\n      add\n        /* \"#utility.yul\":3119:3131   */\n      dup3\n        /* \"#utility.yul\":3085:3148   */\n      tag_41\n      jump\t// in\n    tag_79:\n        /* \"#utility.yul\":2993:3158   */\n      pop\n        /* \"#utility.yul\":2771:3165   */\n      pop\n        /* \"#utility.yul\":2663:3165   */\n      pop\n      pop\n      jump\t// out\n        /* \"#utility.yul\":3171:3454   */\n    tag_43:\n        /* \"#utility.yul\":3292:3302   */\n      0x00\n        /* \"#utility.yul\":3313:3411   */\n      tag_81\n        /* \"#utility.yul\":3407:3410   */\n      dup4\n        /* \"#utility.yul\":3399:3405   */\n      dup4\n        /* \"#utility.yul\":3313:3411   */\n      tag_42\n      jump\t// in\n    tag_81:\n        /* \"#utility.yul\":3443:3447   */\n      0x40\n        /* \"#utility.yul\":3438:3441   */\n      dup4\n        /* \"#utility.yul\":3434:3448   */\n      add\n        /* \"#utility.yul\":3420:3448   */\n      swap1\n      pop\n        /* \"#utility.yul\":3171:3454   */\n      swap3\n      swap2\n      pop\n      pop\n      jump\t// out\n        /* \"#utility.yul\":3460:3599   */\n    tag_44:\n        /* \"#utility.yul\":3556:3560   */\n      0x00\n        /* \"#utility.yul\":3588:3592   */\n      0x20\n        /* \"#utility.yul\":3583:3586   */\n      dup3\n        /* \"#utility.yul\":3579:3593   */\n      add\n        /* \"#utility.yul\":3571:3593   */\n      swap1\n      pop\n        /* \"#utility.yul\":3460:3599   */\n      swap2\n      swap1\n      pop\n      jump\t// out\n        /* \"#utility.yul\":3673:4613   */\n    tag_45:\n        /* \"#utility.yul\":3844:3847   */\n      0x00\n        /* \"#utility.yul\":3873:3953   */\n      tag_84\n        /* \"#utility.yul\":3947:3952   */\n      dup3\n        /* \"#utility.yul\":3873:3953   */\n      tag_37\n      jump\t// in\n    tag_84:\n        /* \"#utility.yul\":3969:4081   */\n      tag_85\n        /* \"#utility.yul\":4074:4080   */\n      dup2\n        /* \"#utility.yul\":4069:4072   */\n      dup6\n        /* \"#utility.yul\":3969:4081   */\n      tag_38\n      jump\t// in\n    tag_85:\n        /* \"#utility.yul\":3962:4081   */\n      swap4\n      pop\n        /* \"#utility.yul\":4105:4187   */\n      tag_86\n        /* \"#utility.yul\":4181:4186   */\n      dup4\n        /* \"#utility.yul\":4105:4187   */\n      tag_39\n      jump\t// in\n    tag_86:\n        /* \"#utility.yul\":4210:4217   */\n      dup1\n        /* \"#utility.yul\":4241:4242   */\n      0x00\n        /* \"#utility.yul\":4226:4588   */\n    tag_87:\n        /* \"#utility.yul\":4251:4257   */\n      dup4\n        /* \"#utility.yul\":4248:4249   */\n      dup2\n        /* \"#utility.yul\":4245:4258   */\n      lt\n        /* \"#utility.yul\":4226:4588   */\n      iszero\n      tag_89\n      jumpi\n        /* \"#utility.yul\":4327:4333   */\n      dup2\n        /* \"#utility.yul\":4321:4334   */\n      mload\n        /* \"#utility.yul\":4354:4469   */\n      tag_90\n        /* \"#utility.yul\":4465:4468   */\n      dup9\n        /* \"#utility.yul\":4450:4463   */\n      dup3\n        /* \"#utility.yul\":4354:4469   */\n      tag_43\n      jump\t// in\n    tag_90:\n        /* \"#utility.yul\":4347:4469   */\n      swap8\n      pop\n        /* \"#utility.yul\":4492:4578   */\n      tag_91\n        /* \"#utility.yul\":4571:4577   */\n      dup4\n        /* \"#utility.yul\":4492:4578   */\n      tag_44\n      jump\t// in\n    tag_91:\n        /* \"#utility.yul\":4482:4578   */\n      swap3\n      pop\n        /* \"#utility.yul\":4286:4588   */\n      pop\n        /* \"#utility.yul\":4273:4274   */\n      0x01\n        /* \"#utility.yul\":4270:4271   */\n      dup2\n        /* \"#utility.yul\":4266:4275   */\n      add\n        /* \"#utility.yul\":4261:4275   */\n      swap1\n      pop\n        /* \"#utility.yul\":4226:4588   */\n      jump(tag_87)\n    tag_89:\n        /* \"#utility.yul\":4230:4244   */\n      pop\n        /* \"#utility.yul\":4604:4607   */\n      dup6\n        /* \"#utility.yul\":4597:4607   */\n      swap4\n      pop\n        /* \"#utility.yul\":3849:4613   */\n      pop\n      pop\n      pop\n        /* \"#utility.yul\":3673:4613   */\n      swap3\n      swap2\n      pop\n      pop\n      jump\t// out\n        /* \"#utility.yul\":4619:5096   */\n    tag_18:\n        /* \"#utility.yul\":4814:4818   */\n      0x00\n        /* \"#utility.yul\":4852:4854   */\n      0x20\n        /* \"#utility.yul\":4841:4850   */\n      dup3\n        /* \"#utility.yul\":4837:4855   */\n      add\n        /* \"#utility.yul\":4829:4855   */\n      swap1\n      pop\n        /* \"#utility.yul\":4901:4910   */\n      dup2\n        /* \"#utility.yul\":4895:4899   */\n      dup2\n        /* \"#utility.yul\":4891:4911   */\n      sub\n        /* \"#utility.yul\":4887:4888   */\n      0x00\n        /* \"#utility.yul\":4876:4885   */\n      dup4\n        /* \"#utility.yul\":4872:4889   */\n      add\n        /* \"#utility.yul\":4865:4912   */\n      mstore\n        /* \"#utility.yul\":4929:5089   */\n      tag_93\n        /* \"#utility.yul\":5084:5088   */\n      dup2\n        /* \"#utility.yul\":5075:5081   */\n      dup5\n        /* \"#utility.yul\":4929:5089   */\n      tag_45\n      jump\t// in\n    tag_93:\n        /* \"#utility.yul\":4921:5089   */\n      swap1\n      pop\n        /* \"#utility.yul\":4619:5096   */\n      swap3\n      swap2\n      pop\n      pop\n      jump\t// out\n\n    auxdata: 0xa264697066735822122070228f66b65737eb9e9788a1f02cc40734d0a7ccc0f7d4bcd5b0737c44ef793c64736f6c634300081a0033\n}\n",
				"bytecode": {
					"linkReferences": {},
					"object": "6080604052348015600e575f80fd5b506104728061001c5f395ff3fe608060405260043610610033575f3560e01c806348504c8a146100375780636b6c7a8b146100415780638c0f43361461007e575b5f80fd5b61003f6100a8565b005b34801561004c575f80fd5b5061006760048036038101906100629190610289565b61014c565b604051610075929190610302565b60405180910390f35b348015610089575f80fd5b50610092610199565b60405161009f919061041c565b60405180910390f35b5f60405180604001604052803373ffffffffffffffffffffffffffffffffffffffff16815260200134815250908060018154018082558091505060019003905f5260205f2090600202015f909190919091505f820151815f015f6101000a81548173ffffffffffffffffffffffffffffffffffffffff021916908373ffffffffffffffffffffffffffffffffffffffff160217905550602082015181600101555050565b5f818154811061015a575f80fd5b905f5260205f2090600202015f91509050805f015f9054906101000a900473ffffffffffffffffffffffffffffffffffffffff16908060010154905082565b60605f805480602002602001604051908101604052809291908181526020015f905b82821015610249578382905f5260205f2090600202016040518060400160405290815f82015f9054906101000a900473ffffffffffffffffffffffffffffffffffffffff1673ffffffffffffffffffffffffffffffffffffffff1673ffffffffffffffffffffffffffffffffffffffff168152602001600182015481525050815260200190600101906101bb565b50505050905090565b5f80fd5b5f819050919050565b61026881610256565b8114610272575f80fd5b50565b5f813590506102838161025f565b92915050565b5f6020828403121561029e5761029d610252565b5b5f6102ab84828501610275565b91505092915050565b5f73ffffffffffffffffffffffffffffffffffffffff82169050919050565b5f6102dd826102b4565b9050919050565b6102ed816102d3565b82525050565b6102fc81610256565b82525050565b5f6040820190506103155f8301856102e4565b61032260208301846102f3565b9392505050565b5f81519050919050565b5f82825260208201905092915050565b5f819050602082019050919050565b61035b816102d3565b82525050565b61036a81610256565b82525050565b604082015f8201516103845f850182610352565b5060208201516103976020850182610361565b50505050565b5f6103a88383610370565b60408301905092915050565b5f602082019050919050565b5f6103ca82610329565b6103d48185610333565b93506103df83610343565b805f5b8381101561040f5781516103f6888261039d565b9750610401836103b4565b9250506001810190506103e2565b5085935050505092915050565b5f6020820190508181035f83015261043481846103c0565b90509291505056fea264697066735822122070228f66b65737eb9e9788a1f02cc40734d0a7ccc0f7d4bcd5b0737c44ef793c64736f6c634300081a0033",
					"opcodes": "PUSH1 0x80 PUSH1 0x40 MSTORE CALLVALUE DUP1 ISZERO PUSH1 0xE JUMPI PUSH0 DUP1 REVERT JUMPDEST POP PUSH2 0x472 DUP1 PUSH2 0x1C PUSH0 CODECOPY PUSH0 RETURN INVALID PUSH1 0x80 PUSH1 0x40 MSTORE PUSH1 0x4 CALLDATASIZE LT PUSH2 0x33 JUMPI PUSH0 CALLDATALOAD PUSH1 0xE0 SHR DUP1 PUSH4 0x48504C8A EQ PUSH2 0x37 JUMPI DUP1 PUSH4 0x6B6C7A8B EQ PUSH2 0x41 JUMPI DUP1 PUSH4 0x8C0F4336 EQ PUSH2 0x7E JUMPI JUMPDEST PUSH0 DUP1 REVERT JUMPDEST PUSH2 0x3F PUSH2 0xA8 JUMP JUMPDEST STOP JUMPDEST CALLVALUE DUP1 ISZERO PUSH2 0x4C JUMPI PUSH0 DUP1 REVERT JUMPDEST POP PUSH2 0x67 PUSH1 0x4 DUP1 CALLDATASIZE SUB DUP2 ADD SWAP1 PUSH2 0x62 SWAP2 SWAP1 PUSH2 0x289 JUMP JUMPDEST PUSH2 0x14C JUMP JUMPDEST PUSH1 0x40 MLOAD PUSH2 0x75 SWAP3 SWAP2 SWAP1 PUSH2 0x302 JUMP JUMPDEST PUSH1 0x40 MLOAD DUP1 SWAP2 SUB SWAP1 RETURN JUMPDEST CALLVALUE DUP1 ISZERO PUSH2 0x89 JUMPI PUSH0 DUP1 REVERT JUMPDEST POP PUSH2 0x92 PUSH2 0x199 JUMP JUMPDEST PUSH1 0x40 MLOAD PUSH2 0x9F SWAP2 SWAP1 PUSH2 0x41C JUMP JUMPDEST PUSH1 0x40 MLOAD DUP1 SWAP2 SUB SWAP1 RETURN JUMPDEST PUSH0 PUSH1 0x40 MLOAD DUP1 PUSH1 0x40 ADD PUSH1 0x40 MSTORE DUP1 CALLER PUSH20 0xFFFFFFFFFFFFFFFFFFFFFFFFFFFFFFFFFFFFFFFF AND DUP2 MSTORE PUSH1 0x20 ADD CALLVALUE DUP2 MSTORE POP SWAP1 DUP1 PUSH1 0x1 DUP2 SLOAD ADD DUP1 DUP3 SSTORE DUP1 SWAP2 POP POP PUSH1 0x1 SWAP1 SUB SWAP1 PUSH0 MSTORE PUSH1 0x20 PUSH0 KECCAK256 SWAP1 PUSH1 0x2 MUL ADD PUSH0 SWAP1 SWAP2 SWAP1 SWAP2 SWAP1 SWAP2 POP PUSH0 DUP3 ADD MLOAD DUP2 PUSH0 ADD PUSH0 PUSH2 0x100 EXP DUP2 SLOAD DUP2 PUSH20 0xFFFFFFFFFFFFFFFFFFFFFFFFFFFFFFFFFFFFFFFF MUL NOT AND SWAP1 DUP4 PUSH20 0xFFFFFFFFFFFFFFFFFFFFFFFFFFFFFFFFFFFFFFFF AND MUL OR SWAP1 SSTORE POP PUSH1 0x20 DUP3 ADD MLOAD DUP2 PUSH1 0x1 ADD SSTORE POP POP JUMP JUMPDEST PUSH0 DUP2 DUP2 SLOAD DUP2 LT PUSH2 0x15A JUMPI PUSH0 DUP1 REVERT JUMPDEST SWAP1 PUSH0 MSTORE PUSH1 0x20 PUSH0 KECCAK256 SWAP1 PUSH1 0x2 MUL ADD PUSH0 SWAP2 POP SWAP1 POP DUP1 PUSH0 ADD PUSH0 SWAP1 SLOAD SWAP1 PUSH2 0x100 EXP SWAP1 DIV PUSH20 0xFFFFFFFFFFFFFFFFFFFFFFFFFFFFFFFFFFFFFFFF AND SWAP1 DUP1 PUSH1 0x1 ADD SLOAD SWAP1 POP DUP3 JUMP JUMPDEST PUSH1 0x60 PUSH0 DUP1 SLOAD DUP1 PUSH1 0x20 MUL PUSH1 0x20 ADD PUSH1 0x40 MLOAD SWAP1 DUP2 ADD PUSH1 0x40 MSTORE DUP1 SWAP3 SWAP2 SWAP1 DUP2 DUP2 MSTORE PUSH1 0x20 ADD PUSH0 SWAP1 JUMPDEST DUP3 DUP3 LT ISZERO PUSH2 0x249 JUMPI DUP4 DUP3 SWAP1 PUSH0 MSTORE PUSH1 0x20 PUSH0 KECCAK256 SWAP1 PUSH1 0x2 MUL ADD PUSH1 0x40 MLOAD DUP1 PUSH1 0x40 ADD PUSH1 0x40 MSTORE SWAP1 DUP2 PUSH0 DUP3 ADD PUSH0 SWAP1 SLOAD SWAP1 PUSH2 0x100 EXP SWAP1 DIV PUSH20 0xFFFFFFFFFFFFFFFFFFFFFFFFFFFFFFFFFFFFFFFF AND PUSH20 0xFFFFFFFFFFFFFFFFFFFFFFFFFFFFFFFFFFFFFFFF AND PUSH20 0xFFFFFFFFFFFFFFFFFFFFFFFFFFFFFFFFFFFFFFFF AND DUP2 MSTORE PUSH1 0x20 ADD PUSH1 0x1 DUP3 ADD SLOAD DUP2 MSTORE POP POP DUP2 MSTORE PUSH1 0x20 ADD SWAP1 PUSH1 0x1 ADD SWAP1 PUSH2 0x1BB JUMP JUMPDEST POP POP POP POP SWAP1 POP SWAP1 JUMP JUMPDEST PUSH0 DUP1 REVERT JUMPDEST PUSH0 DUP2 SWAP1 POP SWAP2 SWAP1 POP JUMP JUMPDEST PUSH2 0x268 DUP2 PUSH2 0x256 JUMP JUMPDEST DUP2 EQ PUSH2 0x272 JUMPI PUSH0 DUP1 REVERT JUMPDEST POP JUMP JUMPDEST PUSH0 DUP2 CALLDATALOAD SWAP1 POP PUSH2 0x283 DUP2 PUSH2 0x25F JUMP JUMPDEST SWAP3 SWAP2 POP POP JUMP JUMPDEST PUSH0 PUSH1 0x20 DUP3 DUP5 SUB SLT ISZERO PUSH2 0x29E JUMPI PUSH2 0x29D PUSH2 0x252 JUMP JUMPDEST JUMPDEST PUSH0 PUSH2 0x2AB DUP5 DUP3 DUP6 ADD PUSH2 0x275 JUMP JUMPDEST SWAP2 POP POP SWAP3 SWAP2 POP POP JUMP JUMPDEST PUSH0 PUSH20 0xFFFFFFFFFFFFFFFFFFFFFFFFFFFFFFFFFFFFFFFF DUP3 AND SWAP1 POP SWAP2 SWAP1 POP JUMP JUMPDEST PUSH0 PUSH2 0x2DD DUP3 PUSH2 0x2B4 JUMP JUMPDEST SWAP1 POP SWAP2 SWAP1 POP JUMP JUMPDEST PUSH2 0x2ED DUP2 PUSH2 0x2D3 JUMP JUMPDEST DUP3 MSTORE POP POP JUMP JUMPDEST PUSH2 0x2FC DUP2 PUSH2 0x256 JUMP JUMPDEST DUP3 MSTORE POP POP JUMP JUMPDEST PUSH0 PUSH1 0x40 DUP3 ADD SWAP1 POP PUSH2 0x315 PUSH0 DUP4 ADD DUP6 PUSH2 0x2E4 JUMP JUMPDEST PUSH2 0x322 PUSH1 0x20 DUP4 ADD DUP5 PUSH2 0x2F3 JUMP JUMPDEST SWAP4 SWAP3 POP POP POP JUMP JUMPDEST PUSH0 DUP2 MLOAD SWAP1 POP SWAP2 SWAP1 POP JUMP JUMPDEST PUSH0 DUP3 DUP3 MSTORE PUSH1 0x20 DUP3 ADD SWAP1 POP SWAP3 SWAP2 POP POP JUMP JUMPDEST PUSH0 DUP2 SWAP1 POP PUSH1 0x20 DUP3 ADD SWAP1 POP SWAP2 SWAP1 POP JUMP JUMPDEST PUSH2 0x35B DUP2 PUSH2 0x2D3 JUMP JUMPDEST DUP3 MSTORE POP POP JUMP JUMPDEST PUSH2 0x36A DUP2 PUSH2 0x256 JUMP JUMPDEST DUP3 MSTORE POP POP JUMP JUMPDEST PUSH1 0x40 DUP3 ADD PUSH0 DUP3 ADD MLOAD PUSH2 0x384 PUSH0 DUP6 ADD DUP3 PUSH2 0x352 JUMP JUMPDEST POP PUSH1 0x20 DUP3 ADD MLOAD PUSH2 0x397 PUSH1 0x20 DUP6 ADD DUP3 PUSH2 0x361 JUMP JUMPDEST POP POP POP POP JUMP JUMPDEST PUSH0 PUSH2 0x3A8 DUP4 DUP4 PUSH2 0x370 JUMP JUMPDEST PUSH1 0x40 DUP4 ADD SWAP1 POP SWAP3 SWAP2 POP POP JUMP JUMPDEST PUSH0 PUSH1 0x20 DUP3 ADD SWAP1 POP SWAP2 SWAP1 POP JUMP JUMPDEST PUSH0 PUSH2 0x3CA DUP3 PUSH2 0x329 JUMP JUMPDEST PUSH2 0x3D4 DUP2 DUP6 PUSH2 0x333 JUMP JUMPDEST SWAP4 POP PUSH2 0x3DF DUP4 PUSH2 0x343 JUMP JUMPDEST DUP1 PUSH0 JUMPDEST DUP4 DUP2 LT ISZERO PUSH2 0x40F JUMPI DUP2 MLOAD PUSH2 0x3F6 DUP9 DUP3 PUSH2 0x39D JUMP JUMPDEST SWAP8 POP PUSH2 0x401 DUP4 PUSH2 0x3B4 JUMP JUMPDEST SWAP3 POP POP PUSH1 0x1 DUP2 ADD SWAP1 POP PUSH2 0x3E2 JUMP JUMPDEST POP DUP6 SWAP4 POP POP POP POP SWAP3 SWAP2 POP POP JUMP JUMPDEST PUSH0 PUSH1 0x20 DUP3 ADD SWAP1 POP DUP2 DUP2 SUB PUSH0 DUP4 ADD MSTORE PUSH2 0x434 DUP2 DUP5 PUSH2 0x3C0 JUMP JUMPDEST SWAP1 POP SWAP3 SWAP2 POP POP JUMP INVALID LOG2 PUSH5 0x6970667358 0x22 SLT KECCAK256 PUSH17 0x228F66B65737EB9E9788A1F02CC40734D0 0xA7 0xCC 0xC0 0xF7 0xD4 0xBC 0xD5 0xB0 PUSH20 0x7C44EF793C64736F6C634300081A003300000000 "
				},
				"gasEstimates": {
					"creation": {
						"codeDepositCost": "227600",
						"executionCost": "267",
						"totalCost": "227867"
					},
					"external": {
						"listSendersAndValues()": "infinite",
						"senderValues(uint256)": "infinite",
						"storeSenderValue()": "70891"
					}
				},
				"methodIdentifiers": {
					"listSendersAndValues()": "8c0f4336",
					"senderValues(uint256)": "6b6c7a8b",
					"storeSenderValue()": "48504c8a"
				}
			},
			"storageLayout": {
				"storage": [
					{
						"astId": 10,
						"contract": "MiArray.sol:MiArray",
						"label": "senderValues",
						"offset": 0,
						"slot": "0",
						"type": "t_array(t_struct(SenderValue)6_storage)dyn_storage"
					}
				],
				"types": {
					"t_address": {
						"encoding": "inplace",
						"label": "address",
						"numberOfBytes": "20"
					},
					"t_array(t_struct(SenderValue)6_storage)dyn_storage": {
						"base": "t_struct(SenderValue)6_storage",
						"encoding": "dynamic_array",
						"label": "struct MiArray.SenderValue[]",
						"numberOfBytes": "32"
					},
					"t_struct(SenderValue)6_storage": {
						"encoding": "inplace",
						"label": "struct MiArray.SenderValue",
						"members": [
							{
								"astId": 3,
								"contract": "MiArray.sol:MiArray",
								"label": "sender",
								"offset": 0,
								"slot": "0",
								"type": "t_address"
							},
							{
								"astId": 5,
								"contract": "MiArray.sol:MiArray",
								"label": "value",
								"offset": 0,
								"slot": "1",
								"type": "t_uint256"
							}
						],
						"numberOfBytes": "64"
					},
					"t_uint256": {
						"encoding": "inplace",
						"label": "uint256",
						"numberOfBytes": "32"
					}
				}
			},
			"userdoc": {
				"kind": "user",
				"methods": {},
				"version": 1
			}
		}
	}
}